:0400000061EF00F0BC
:0C000800FACF9BF0FBCF9CF002EF0AF057
:10001800D8CF1FF0E8CF20F0E0CF21F0FACF22F0C0
:10002800FBCF23F0E9CF24F0EACF25F0E1CF26F08B
:10003800E2CF27F0D9CF28F0DACF29F0F3CF2AF092
:10004800F4CF2BF0F6CF2CF0F7CF2DF0F8CF2EF021
:10005800F5CF2FF09EA003D09E90CCEC0DF09EAA79
:1000680003D09E9AE6EC0DF09DB89EA803D09D980B
:10007800D6EC0BF02FC0F5FF2EC0F8FF2DC0F7FF10
:100088002CC0F6FF2BC0F4FF2AC0F3FF29C0DAFF0B
:1000980028C0D9FF27C0E2FF26C0E1FF25C0EAFF3C
:1000A80024C0E9FF23C0FBFF22C0FAFF21C0E0FF04
:1000B80020C0E8FF1FC0D8FF100044EF0AF001017C
:1000C800A66F000E01010101B96F0101A651820E50
:1000D800D36E9B9C0101010E01010101836F010197
:1000E800C40E01010101826F0BEC0DF00101010E3C
:1000F80001010101836F0101E00E01010101826F1D
:10010800A1EC0BF00101010E01010101836F010156
:10011800BE0E01010101826F89EC0EF00101010E92
:1001280001010101836F0101C00E01010101826F0C
:1001380092EC0EF030EC0BF0000E936E000E8A6E0F
:100148009F98BFEC0EF09F909F9A9F869F8C9D86EC
:10015800000E01010101836F260E0101826F7C0EE2
:1001680074EC09F037EC0EF09F0EFCEC0DF08A8E63
:100178002BEC08F00101010E010101019B6F010147
:10018800C20E010101019A6F0101010E0101010175
:100198009D6F0101AE0E010101019C6F0A0ECAECB0
:1001A8000CF001010101C36F01010101C3BF3DD181
:1001B80029D10101010E010101019D6F0101C00E4C
:1001C800010101019C6F01010101C2C19EF1010100
:1001D80001019F6B01010101C35101010101A06FE0
:1001E8000101A16B0101A0BFA1070101010E0101DD
:1001F8000101A36F0101AE0E01010101A26FF7EC2D
:100208000AF013D18ABC02D0010E01D0000E010100
:10021800A66F0101A63BA647A6478A500101A61969
:10022800BF0BA6198A6E0101A66F020E010101011A
:10023800156F0101A65101010101AE05D8A404D032
:100248000101A66F010E09D001010101AE51050A95
:10025800D8A408D00101A66F000E01010101B96FF1
:100268000101A65101010101AE51110AD8A414D00F
:100278000101A66F050E01010101826F0101A6515E
:100288000101A76F4E0E01010101836F0101A75102
:100298000A0E2BEC09F00DD0AEC182F10101A66F58
:1002A8004F0E01010101836F0101A6510A0E2BECCB
:1002B80009F0AFC1ABF1B9D0AEC1A8F1B6D0010118
:1002C80001011505D8A486D001010101AEC1BCF118
:1002D80001010101BD6B01010101BD51800A800FBF
:1002E800010ED8B4BC5DD8A0A0D0000E0101010158
:1002F800BB6F000E0101BA6F1BD00101AE0E0101E8
:100308000101BA25D96E0101010E01010101BB21CC
:10031800DA6EDF500101A66F0101A651010101014A
:10032800AC27000E0101AD2301010101BA4BBB2B23
:1003380001010101BB51800A0101A66F0101BC51F5
:1003480001010101BA5D01010101BD51800A0101EC
:10035800A659D8A0D2D7ACC182F1ADC183F1BCC136
:1003680084F1BDC185F173EC05F0010182C1ACF1E6
:10037800010183C1ADF11E0E01010101AF5DD8B0CD
:1003880054D001010101B905D8A44FD00101A66FCD
:10039800020E01010101156F0101A6510101A66FAD
:1003A800000E01010101B96F0101A6510101A66FFB
:1003B800050E01010101826F0101A6510101A76F1C
:1003C8004F0E01010101836F0101A7510A0E2BECA9
:1003D80009F02BD00101A66F2F0E01010101986FC2
:1003E8000101A6510101010E010101019A6F0101EC
:1003F800AE0E01010101996F01010101C3517BECAE
:100408000DF013D001010101C2510A0AD8B4D1D6A6
:10041800220AD8B4F7D6010AD8B44ED7030AD8B4FA
:1004280004D0070AD8B44BD71A0A0101010E0101FA
:1004380001019B6F0101C20E010101019A6F0101C7
:10044800010E010101019D6F0101AE0E01010101C3
:100458009C6F0A0EA9EC0CF001010101C36F0101A8
:100468000101C3BF85D66BD00101010E0101010155
:100478009D6F0101BE0E010101019C6F0101010187
:10048800C2C19EF1010101019F6B01010101C3512C
:1004980001010101A06F0101A16B0101A0BFA1072A
:1004A8000101010E01010101A36F0101AE0E01015D
:1004B8000101A26FBEEC0AF05BD601010101C35134
:1004C800010101018A6F01018B6B01018ABF8B0752
:1004D8000101010E010101018D6F0101AE0E010143
:1004E80001018C6FABC18EF1D9EC08F00101010E4E
:1004F800010101019D6F0101A90E010101019C6F1C
:1005080001010101C2C19EF1010101019F6B0101BD
:100518000101C35101010101A06F0101A16B01019A
:10052800A0BFA1070101010E01010101A36F010193
:10053800AE0E01010101A26F69EC0BF019D60101A1
:100548000101C2510B0AD8B48FD7150AD8B4B5D750
:10055800010AD8B4CBD7300AD8B4AFD709D677D1E7
:10056800000120EE0EF00001DA51D9260001DB511E
:10057800DA22DF50C96EDAC0D9FFDBC0DAFF030E1A
:10058800DF6E1200C5BC12004004D8A41ED00001C2
:1005980020EE0CF00001DA51D9260001DB51DA22F5
:1005A800DF5000019A6F00019A51010D010EF326E8
:1005B800000EF422F35000010001DA25D96EF45040
:1005C80000010001DB21DA6E0DD04050020AD8A4E8
:1005D8000BD0000120EE0DF00001DA51D926000100
:1005E800DB51DA22DF50C96EDAC0D9FFDBC0DAFF8F
:1005F800050EDF6E1200C5BC12004004D8A452D00C
:10060800000120EE0CF00001DA51D9260001DB517F
:10061800DA22DF2A000120EE0CF00001DA51D92697
:100628000001DB51DA22DF5000019A6F000120EE51
:100638000BF00001DA51D9260001DB51DA22DF5034
:1006480000019A5DD8B026D0000120EE0CF0000120
:10065800DA51D9260001DB51DA22DF5000019A6F06
:1006680000019A51010D010EF326000EF422F350F9
:1006780000010001DA25D96EF45000010001DB21E8
:10068800DA6EDF50C96EDAC0D9FFDBC0DAFF050EBB
:10069800DF6E1200C584DAC0D9FFDBC0DAFF090EAD
:1006A800DF6E12004050020AD8A41200C582DAC0D8
:1006B800D9FFDBC0DAFF020EDF6E1200000120EE68
:1006C8000EF00001DA51D9260001DB51DA22DF50A1
:1006D8000109C96EDAC0D9FFDBC0DAFF040EDF6E8C
:1006E8001200C5BC1200C586DAC0D9FFDBC0DAFF2C
:1006F800060EDF6E1200000120EE0CF00001DA5148
:10070800D9260001DB51DA22DF5000019A6F00017F
:100718009A51010D010EF326000EF422F350000148
:100728000001DA25D96EF45000010001DB21DA6EF0
:10073800C9CFDFFF000120EE0CF00001DA51D92605
:100748000001DB51DA22DF2A000120EE0CF0000163
:10075800DA51D9260001DB51DA22DF5000019A6F05
:10076800000120EE0BF00001DA51D9260001DB511F
:10077800DA22DF5000019A5DD8B007D0C59ADAC0F6
:10078800D9FFDBC0DAFF070E06D0C58ADAC0D9FF69
:10079800DBC0DAFF080EDF6EC5881200C586DAC036
:1007A800D9FFDBC0DAFF060EDF6E1200C584DAC09F
:1007B800D9FFDBC0DAFF090EDF6E12004004D8A4AF
:1007C80014D000019A6F2B0E00010001966F0001F2
:1007D8009A51000E00010001986F000E00010001FF
:1007E800976F000EB1EC0DF025D04050020AD8A446
:1007F80021D000019A6F2D0E00010001966F0001B3
:100808009A51010E00010001DA2500010001976FDD
:10081800000E00010001DB210001986F000120EEAD
:100828000CF00001DA51D9260001DB51DA22DF5041
:10083800B1EC0DF000019A6F000E406E00019A5164
:10084800DAC0D9FFDBC0DAFF000EDF6E1200DAC0B3
:10085800D9FFDBC0DAFFDF50010AD8B481D6030A1A
:10086800D8B42CD7010AD8B48DD6070AD8B439D74A
:10087800010AD8B4C0D6030AD8B43DD7010AD8B4FF
:100888008DD70F0AD8B492D7010AD8A4120096D7E8
:10089800E8CF1DF007D11D502B0AD8A4120020EE76
:1008A8000BF06150D9266250DA22350EDF6E120045
:1008B8001D509F0AD8A409D020EE0BF06150D9260C
:1008C8006250DA22310EDF6E120020EE0BF061501A
:1008D800D9266250DA22300EDF6E120020EE0AF0BE
:1008E8006150D9266250DA22000EDF6E20EE0FF03A
:1008F8006150D9266250DA22000EDF6E20EE0CF02D
:100908006150D9266250DA221DC0DFFF61C0D9FFCD
:1009180062C0DAFF1DC0DFFF20EE0BF06150D92660
:100928006250DA22360EDF6E120020EE0EF06150B1
:10093800D9266250DA221DC0DFFF20EE01F0615097
:10094800D9266250DA221DC0DFFF20EE0BF061507D
:10095800D9266250DA22340EDF6E120020EE01F042
:100968006150D9266250DA221DC0DFFF20EE0DF05B
:100978006150D9266250DA221DC0DFFF20EE0AF04E
:100988006150D9266250DA22000EDF6E20EE0FF099
:100998006150D9266250DA22000EDF6E20EE0BF08D
:1009A8006150D9266250DA22330EDF6E120020EE33
:1009B8000FF06150D9266250DA22DF501B6E1C6A94
:1009C800020E1B26000E1C221C50800AF36E800E9D
:1009D800F35C0A0ED8B41B5CD8B015D020EE0FF02B
:1009E8006150D9266250DA22DF501B6E1C6A020E53
:1009F8001B26000E1C221B506124D96E1C5062203D
:100A0800DA6E1DC0DFFF20EE0FF06150D92662506C
:100A1800DA22DF2A20EE0FF06150D9266250DA225E
:100A2800090EDF62120020EE0BF06150D9266250E9
:100A3800DA22340EDF6E12001D505C0AD8A419D0D9
:100A480020EE0BF06150D9266250DA22300EDF6EAC
:100A580074EC0EF00009D8A4FBD71B6E280E176E95
:100A68001B5062C019F061C018F0020E24EC0EF0A1
:100A780008D020EE0BF06150D9266250DA22300EF1
:100A8800DF6E20EE0AF06150D9266250DA22000E9D
:100A9800DF6E20EE0FF06150D9266250DA22000E88
:100AA800DF6E120020EE0BF06150D9266250DA2278
:100AB800DF50300AD8B4EFD6010AD8B40FD7030AEA
:100AC800D8B44CD7010AD8B472D7070AD8B4B4D767
:100AD800010AD8B4EDD6030AD8A4120026D701011A
:100AE800866F000E01010101886F01018651010125
:100AF80001018551800AF36E800EF35C000ED8B4B4
:100B0800845DD8B00FD001010101846D0101851FFA
:100B1800D8B0852B0101866F010E01010101886F94
:100B280001018651010101018351800AF36E800E93
:100B3800F35C000ED8B4825DD8B00BD0010101017E
:100B4800826D0101831FD8B0832B010E01010101C1
:100B5800881B000E010101018A6F000E0101896FD7
:100B68000101010185518411D8B443D00101866F78
:100B7800010E01010101876F0101865109D00101B0
:100B880001010101D8908437853701010101872BC4
:100B98000101010185AFF3D7010101010101D890DD
:100BA80089378A3701010101845101010101825D00
:100BB800010101018551010101018359D8A00FD01C
:100BC80001010101845101010101825F010101015B
:100BD800855101010101835B010101018981010145
:100BE80001010101D8908533843301010101872F68
:100BF800D3D7010101018851D8B407D001010101FF
:100C0800896D01018A1FD8B08A2B89C182F18AC1F6
:100C180083F11200010120EE35F001018C51D92633
:100C280001018D51DA22DF5001010101956F0101A7
:100C3800010195510D0DF350010101018C250101B0
:100C48000101986FF450010101018D210101996F93
:100C5800010E98C1D9FF99C1DAFFDF6274D0010192
:100C680020EE01F001019851D92601019951DA22AB
:100C7800DF50010101018E5DD8B002D0FD0E1200D7
:100C8800010120EE01F001019851D9260101995185
:100C9800DA22DF500101936F010193510101010133
:100CA800966F0101976B0101010192C183F1010166
:100CB800010191C182F1030E010101019825010191
:100CC800936F000E0101010199210101946F93C1F5
:100CD80084F194C185F196C186F197C187F106EC3C
:100CE8000CF0010120EE35F001018C51D9260101EB
:100CF8008D51DA22010110EE35F001018C51E12607
:100D080001018D51E222E7500101936F01019329FE
:100D1800030BDF6E010120EE02F001019851D92684
:100D280001019951DA228FC1E1FF90C1E2FFDFCFC3
:100D3800E7FF98C1D9FF99C1DAFF000EDF6E010104
:100D4800010196511200FC0E1200010101018EC131
:100D580093F101010101946B010120EE34F00101CE
:100D68008C51D92601018D51DA22DF500101010190
:100D7800956F0101010195510D0DF350010101011C
:100D88008C2501010101966FF450010101018D21AB
:100D98000101976F96C1D9FF97C1DAFFDF50D8B428
:100DA80002D0FF0E1200010120EE01F00101965160
:100DB800D92601019751DA2201018EC1DFFF010115
:100DC80020EE02F001019651D92601019751DA224D
:100DD80001018FC1DFFF030E010101019625010109
:100DE8000101826F000E0101010197210101836F4A
:100DF8000101010191C185F10101010190C184F155
:100E080093C186F194C187F106EC0CF0010120EE44
:100E180034F001018C51D92601018D51DA220101EA
:100E280010EE34F001018C51E12601018D51E222CE
:100E3800E7500101926F01019229030BDF6E96C101
:100E4800D9FF97C1DAFF010EDF6E010E1200000113
:100E580000018CC091F000010001926B000120EEAE
:100E680034F000018A51D92600018B51DA22DF5073
:100E780000010001936F0001000193510D0DF35023
:100E8800000100018A2500010001946FF45000015F
:100E980000018B210001956F94C0D9FF95C0DAFF3E
:100EA800DF50D8B402D0FF0E1200000120EE01F08E
:100EB80000019451D92600019551DA2200018CC015
:100EC800DFFF000120EE02F000019451D926000155
:100ED8009551DA2200018DC0DFFF030E00010001E9
:100EE800942500010001806F000E0001000195218A
:100EF8000001816F000100018FC083F00001000133
:100F08008EC082F091C084F092C085F035EC0CF070
:100F1800000120EE34F000018A51D92600018B51DE
:100F2800DA22000110EE34F000018A51E1260001B6
:100F38008B51E222E7500001906F00019029030BCA
:100F4800DF6E94C0D9FF95C0DAFF010EDF6E010E87
:100F5800120020EE10F06150D9266250DA222B0ED2
:100F6800DF6E20EE11F06150D9266250DA229F0E12
:100F7800DF6E000E01010101896F000E0101886F0B
:100F880028D0010101018851010101018225D96E92
:100F9800010101018951010101018321DA6E120E5B
:100FA8000101010188250101866F000E010101017F
:100FB80089210101876F010186516124E16E0101D8
:100FC80087516220E26EDFCFE7FF01010101884B04
:100FD800892B010101018951800A0101866F0101F4
:100FE800845101010101885D010101018551800AD7
:100FF80001018659D8A0C5D7120E01010101882523
:101008000101866F000E0101010189210101876F2D
:10101800010186516124D96E010187516220DA6E7F
:101028005C0EDF6E20EE1AF06150D9266250DA228B
:10103800010101018451030FDF6E20EE1BF06150A6
:10104800D9266250DA22000EDF6E9D88120087ECE6
:101058000CF001010101875101018611D8B4120079
:101068008A860101886F010E00010001DC6F010111
:1010780088510101010E01010101836F0101160E62
:1010880001010101826F60EC0DF00009D8B40AD0AB
:101098000101886F000E00010001DC6F0101885119
:1010A8008A9612000101010E01010101836F0101FD
:1010B8004C0E01010101826F60EC0DF00009D8B4FB
:1010C8000AD00101886F000E00010001DC6F0101E8
:1010D80088518A9612000A0E69EC0EF08AB602D080
:1010E800010E01D0000E0101886F01018847884771
:1010F80088478A5001018819F70B88198A6EB9D771
:101108000DC012F0136A20EE34F00B50D9260C50A3
:10111800DA22DF50146E14500D0DF3500B24156EA7
:10112800F4500C20166E15C0D9FF16C0DAFFDF5038
:10113800D8B402D0FF0E120020EE01F01550D926C7
:101148001650DA220DC0DFFF20EE02F01550D92626
:101158001650DA220EC0DFFF030E1524016E000EB2
:101168001620026E10C004F00FC003F012C005F084
:1011780013C006F0EBEC0CF020EE34F00B50D9263F
:101188000C50DA2210EE34F00B50E1260C50E2221B
:10119800E750116E1128030BDF6E15C0D9FF16C07A
:1011A800DAFF010EDF6E010E12008EC191F1000E02
:1011B800010101019D6F000E01019C6F01010101F8
:1011C8009D51800A800F0A0ED8B49C5DD8B02BD0F0
:1011D800010101019C51010101018C25D96E010118
:1011E80001019D51010101018D21DA6E010E0101FC
:1011F80001019C2501018F6F000E010101019D2154
:101208000101906F0101910E01018F25E16E01012D
:10121800010E01019021E26EDFCFE7FF010101011C
:101228009C4B9D2BCBD70101010E01010101836F5E
:101238000101910E01010101826F000E01010101FE
:10124800856F0B0E0101846FADEC07F01200E8CF3B
:1012580085F1DAC0D9FFDBC0DAFFDF50D8A412006D
:101268000101846F020E406E01018451000120EEDD
:101278000BF00001DA51D9260001DB51DA22010115
:1012880085C1DFFF000120EE0CF00001DA51D926FC
:101298000001DB51DA22000EDF6E000120EE0EF0B5
:1012A8000001DA51D9260001DB51DA2201010101DE
:1012B800835101018325DF6E000120EE0DF000014E
:1012C800DA51D9260001DB51DA22010182C1DFFFA0
:1012D800C580DAC0D9FFDBC0DAFF010EDF6E12006D
:1012E800E8CF87F1000EAC6E000EAB6E0101010174
:1012F80087B1AC880101010187A302D0AC8CAB8C0B
:101308000101010187B5AC8E0101010187A702D057
:10131800AB8801D0AB8A0101010187B9AC849E98E2
:101328000101010187BBAB860101010187AD02D034
:101338009D8A01D09D9A9E9A0101010187AF02D032
:101348009D8801D09D9882C1AFFF010183C184F1BE
:1013580084C185F10101866B01018551B06EAC8AAB
:10136800AB8E949C948EACA81200ACBE1200948CE8
:1013780012000101010185518411D8B43AD001014C
:10138800866F010E01010101876F0101865109D0A5
:10139800010101010101D89084378537010101015C
:1013A800872B0101010185AFF3D7010101018451A8
:1013B80001010101825D0101010185510101010164
:1013C8008359D8A00CD00101010184510101010108
:1013D800825F01010101855101010101835B010166
:1013E80001010101D8908533843301010101872F60
:1013F800DCD782C182F183C183F11200E9CF9DF06D
:10140800EACF9EF0E1CF9FF0E2CFA0F0D9CFA1F0D4
:10141800DACFA2F0F3CFA3F0F4CFA4F0F6CFA5F083
:10142800F7CFA6F0F8CFA7F0F5CFA8F09EA603D087
:101438009E96B3EC02F09EB29E92F2A403D0F29470
:1014480096EC0DF09E50A8C0F5FFA7C0F8FFA6C007
:10145800F7FFA5C0F6FFA4C0F4FFA3C0F3FFA2C026
:10146800DAFFA1C0D9FFA0C0E2FF9FC0E1FF9EC084
:10147800EAFF9DC0E9FF9CC0FBFF9BC0FAFF11007B
:1014880002EE00F06C0EEE6AE806FDE101EE00F0F7
:10149800820EEE6AE806FDE100EECAF0150EEE6A6D
:1014A800E806FDE100EE30F02B0EEE6AE806FDE1FD
:1014B800920EF66E1C0EF76E000EF86E00EEA9F096
:1014C80010EE21F00900F5CFEEFFE550E150FAE10A
:1014D8008A0EF66E1D0EF76E000EF86E00EE5BF0CB
:1014E80010EE06F00900F5CFEEFFE550E150FAE105
:1014F800000EF86E000163EF00F0010120EE34F0F9
:1015080001018251D92601018351DA22000EDF6ED2
:10151800010120EE35F001018251D92601018351E4
:10152800DA22000EDF6E0101846F000E0101010155
:10153800856F01018451030E01010101856501D008
:1015480012000101010185510D0DF3500101010146
:101558008225D96EF450010101018321DA6E000E53
:10156800DF6E01010101852B030E01010101856573
:10157800E8D712009CC1D9FF9DC1DAFFDE2A000E10
:10158800DD229CC1D9FF9DC1DAFF0101DECF82F1C6
:101598000101DDCF83F1000E01010101856F0A0E03
:1015A8000101846FBDEC09F0010101018251090AB2
:1015B80001018311D8A412000101A46F140E0101C6
:1015C8000101986F0101A451010101019DC19AF126
:1015D800010101019CC199F1020E45EC0DF00101D8
:1015E8000101A56F12009CC1D9FF9DC1DAFFDE2A57
:1015F800000EDD229CC1D9FF9DC1DAFF0101DECFBB
:1016080082F10101DDCF83F1000E01010101856F37
:101618000A0E0101846FBDEC09F00101010182513C
:10162800090A01018311D8A412000101A46F140E44
:1016380001010101986F0101A451010101019DC13E
:101648009AF1010101019CC199F1020E45EC0DF0DE
:1016580001010101A56F12000101866F000E000152
:101668000001DC6F010186510101010E0101010138
:10167800836F01014C0E01010101826F81EC0AF0B8
:101688000101010E01010101836F0101160E010123
:101698000101826F81EC0AF00201020E01010101D1
:1016A800836F0201360E01010101826F81EC0AF09D
:1016B8000201020E01010101836F0201000E010106
:1016C8000101826F81EC0AF01200010101019E51B3
:1016D8001E0A9F11D8B41200010101019E511F0A70
:1016E8009F11D8A4120001010101A05101010101BB
:1016F800A225D96E01010101A15101010101A32116
:10170800DA6E000EDF6E0101A46F280E01010101DF
:10171800986F0101A45101010101A3C19AF10101CE
:101728000101A2C199F101010101A0512AEC0DF0BA
:1017380000010001D44BD52B12000101000183C127
:10174800E0F00101000182C1DFF0000120EE0AF0A3
:101758000001DF51D9260001E051DA22000EDF6EC8
:10176800000120EE0BF00001DF51D9260001E05105
:10177800DA22000EDF6E000120EE0CF00001DF51CE
:10178800D9260001E051DA22050EDF6E000120EEB5
:101798000EF00001DF51D9260001E051DA22000ED7
:1017A800DF6E120020EE1AF06150D9266250DA225C
:1017B800DF50D8B4120020EE1BF06150D9266250D9
:1017C800DA22DF50026E0250010D100EF326000ED1
:1017D800F422F3506124D96EF4506220DA6EDF509F
:1017E8007FEC0EF09D8820EE1BF06150D9266250E8
:1017F800DA22DF2A20EE1AF06150D9266250DA2266
:10180800DF0612000101010185C18BF1010101010F
:1018180084C18AF10101010183C189F1010101013A
:1018280082C188F112D08AC1D9FF8BC1DAFF88C181
:10183800E1FF89C1E2FFDFCFE7FF010101018A4B28
:101848008B2B01010101884B892B010101018607BE
:10185800D8A0870701018629D8B48729D8B41200EF
:10186800E2D70001000183C089F00001000182C0B5
:1018780088F00001000181C087F00001000180C0EC
:1018880086F012D088C0D9FF89C0DAFF86C0E1FF90
:1018980087C0E2FFDFCFE7FF00010001884B892BFB
:1018A80000010001864B872B000100018407D8A0A6
:1018B800850700018429D8B48529D8B41200E2D755
:1018C800F2AC08D0000E01010101856F000E010184
:1018D800846F12009BEC0EF001010101835101019C
:1018E8008211D8B408D0000E01010101856F000EE5
:1018F8000101846F1200000E01010101856F010EC4
:101908000101846F120064EC0CF0010101018551A2
:1019180001018411D8A411D09BEC0EF00101010142
:10192800835101018211D8A408D0000E01010101E0
:10193800876F010E0101866F1200000E010101017F
:10194800876F000E0101866F1200E8CF9EF101013A
:10195800010E010101018D6F01014C0E0101010110
:101968008C6F9EC18EF1010101019BC190F10101B3
:1019780001019AC18FF1010101019DC192F101019B
:1019880001019CC191F10EEC06F01200E8CF9EF126
:101998000101010E010101018D6F0101160E010106
:1019A80001018C6F9EC18EF1010101019BC190F173
:1019B800010101019AC18FF1010101019DC192F15B
:1019C800010101019CC191F10EEC06F0120004C066
:1019D8000AF003C009F002C008F001C007F00ED0F9
:1019E80009C0D9FF0AC0DAFF07C0E1FF08C0E2FF5B
:1019F800DFCFE7FF094A0A2A074A082A0506D8A0BE
:101A080006060528D8B40628D8B41200E9D701017B
:101A180083C162F0010182C161F020EE0AF06150D9
:101A2800D9266250DA22000EDF6E20EE0FF06150E8
:101A3800D9266250DA22000EDF6E20EE0BF06150DC
:101A4800D9266250DA22300EDF6E1200E8CF9BF101
:101A58000101010E010101018D6F0101160E010145
:101A680001018C6F9BC18EF198C18FF101010101B9
:101A78009AC191F10101010199C190F1A9EC06F017
:101A88001200E8CF9BF10201020E010101018D6FE6
:101A98000201000E010101018C6F9BC18EF198C1FA
:101AA8008FF1010101019AC191F10101010199C16F
:101AB80090F1A9EC06F01200010120EE35F00101C9
:101AC8008251D92601018351DA22DF500101846F46
:101AD800010184510D0DF350010101018225D96ED8
:101AE800F450010101018321DA6EDF501200E8CFC2
:101AF8009BF10101010E010101018D6F01014C0EE5
:101B0800010101018C6F9BC18EF198C18FF1010118
:101B180001019AC191F10101010199C190F1A9EC6A
:101B280006F012008ABC02D0010E01D0000E00019E
:101B3800846F0001843B844784478A5000018419DC
:101B4800BF0B84198A6E000E00010001816F000E20
:101B58000001806FB6EC0EF01200E8CF99F0010199
:101B6800010E000100018B6F0101160E000100013A
:101B78008A6F99C08CF096C08DF00001000198C062
:101B88008FF00001000197C08EF02BEC07F01200D7
:101B98008ABE02D0010E01D0000E056E0532053254
:101BA8008A5005187F0B05188A6EADEC0EF001C03F
:101BB80006F002C007F0000E026E000E016EA4ECE3
:101BC8000EF012009EAA04D05AEC0EF04CEC04F071
:101BD8003CA61200AB98AB881E6E1E0E176E1E50E8
:101BE800000E196E000E186E000E11EC0EF01200A9
:101BF800E8CF82F10101010182517F0BD56E000E01
:101C0800D76E000ED66EF2940101010182AF02D0A8
:101C1800F28A01D0F29AD58E1200E8CF1AF00101AB
:101C2800010E0C6E01014C0E0B6E1AC00DF017C0A0
:101C38000EF019C010F018C00FF084EC08F0120074
:101C4800E8CF1AF00101010E0C6E0101160E0B6EA1
:101C58001AC00DF017C00EF019C010F018C00FF020
:101C680084EC08F0120094869488C78EC79C1D0ED9
:101C7800C86E080EC66E000EC56EC68ADAC0D9FFD9
:101C8800DBC0DAFF000EDF6E12004D4943524F43AE
:101C98004849503A4932435F4D4153544552004DEB
:101CA800CC23A332B1DB235CA3B42D00F20E3C1687
:101CB800ABAC03D03C90ABB03C80ABB43C84ABB293
:101CC8003C86AECF01F001501200E8CF82F1FA0E47
:101CD80000F0E82EFDD701010101822FF8D712008C
:101CE800DAC0D9FFDBC0DAFFDF50D8A402D0000E7B
:101CF8001200010E1200E8CF01F0ACAC03D0AC909A
:101D08003CB2AC8001C0ADFF120082C1D9FF83C1D3
:101D1800DAFF000EDE6E000EDD6E120082C1D9FF02
:101D280083C1DAFF000EDE6E000EDD6E1200000EBB
:101D3800F2AE010E01010101826F0101836B1200F5
:101D480001C003F002C004F004C0CFFF03C0CEFFFF
:101D58001200CECF03F0CFCF04F003C001F004C0CF
:101D680002F0120080C082F081C083F083C0D7FFE8
:101D780082C0D6FF1200D08EF28EF28CF28AF184E5
:081D88001200018101001E00A0
:067FF80080F4C5FFFFF15B
:00000001FF
