:040000005DEF00F0C0
:0C000800FACF98F0FBCF99F0BBEF07F0A7
:10001800D8CF1EF0E8CF1FF0E0CF20F0FACF21F0C4
:10002800FBCF22F0E9CF23F0EACF24F0E1CF25F08F
:10003800E2CF26F0D9CF27F0DACF28F0F3CF29F096
:10004800F4CF2AF0F6CF2BF0F7CF2CF0F8CF2DF025
:10005800F5CF2EF09EA005D09E9077EC0EF0E0EC48
:100068000BF09EAA03D09E9A14EC09F02EC0F5FF5F
:100078002DC0F8FF2CC0F7FF2BC0F6FF2AC0F4FFF5
:1000880029C0F3FF28C0DAFF27C0D9FF26C0E2FF46
:1000980025C0E1FF24C0EAFF23C0E9FF22C0FBFF1F
:1000A80021C0FAFF20C0E0FF1FC0E8FF1EC0D8FF34
:1000B8001000ECEF0CF0496E000E00010001956F86
:1000C8004950496E000E00010001906F4950496E79
:1000D800000E00010001946F4950496E000E0001A6
:1000E8000001936F4950496E000E00010001916FA5
:1000F8004950C6AC27D0C69C000120EE0CF0000188
:10010800CD51D9260001CE51DA22050EDF6E496E97
:10011800010E00010001916F4950000120EE0EF020
:100128000001CD51D9260001CE51DA22DF2A000183
:1001380020EE0DF00001CD51D9260001CE51DA2272
:10014800040EDF6EC7A008D0C9CF92F0496E010E29
:1001580000010001956F4950000100019167B8D175
:10016800A1D1C7A6B5D100010001955157EC07F000
:10017800000120EE0CF00001CD51D9260001CE512E
:10018800DA22080EDF62A4D1496E000E00010001D8
:10019800956F4950496E010E00010001936F75D1AA
:1001A800C7A82ED0000120EE0BF00001CD51D926B2
:1001B8000001CE51DA22DF2A000100019551D8B49E
:1001C80066D1C7BA07D0496E010E00010001946FCD
:1001D80049505DD1000120EE0EF00001CD51D92625
:1001E8000001CE51DA22DF2A000120EE0DF00001D5
:1001F800CD51D9260001CE51DA22060EDF6E47D145
:10020800000100019551D8B463D1000120EE0BF034
:100218000001CD51D9260001CE51DA22DF2AC7BA12
:1002280019D0C7B40BD0000120EE0CF00001CD515D
:10023800D9260001CE51DA22070E71D0000120EE36
:100248000CF00001CD51D9260001CE51DA22080E5A
:10025800DF6E10D1000120EE0EF00001CD51D9263D
:100268000001CE51DA22DF2A000120EE0CF0000155
:10027800CD51D9260001CE51DA22050EDF6E0001DC
:1002880020EE0DF00001CD51D9260001CE51DA2221
:10029800060E45D0000120EE1AF00001CD51D926F6
:1002A8000001CE51DA22DF50496E000120EE19F02C
:1002B8000001CD51D9260001CE51DA22DF50495C28
:1002C800D8B0E5D0000120EE1AF00001CD51D926B2
:1002D8000001CE51DA22DF50496E4950010D0F0E50
:1002E800F326000EF422F35000010001CD25D96E4B
:1002F800F45000010001CE21DA6EDF50C96E000112
:1003080020EE1AF00001CD51D9260001CE51DA2293
:10031800DF2A496E010E00010001906FB6D0DF6E32
:10032800D7D0C7A85ED0000120EE0BF00001CD5158
:10033800D9260001CE51DA22DF2A000100019551A9
:10034800D8B448D0C7AA25D0000120EE0AF0000191
:10035800CD51D9260001CE51DA22DF50496E4950DD
:10036800010DF35000010001CD25D96EF4500001B4
:100378000001CE21DA6E000192C0DFFF000120EEFD
:100388000AF00001CD51D9260001CE51DA22DF2A28
:1003980021D0000120EE0EF00001CD51D926000138
:1003A800CE51DA22DF2A000120EE0DF00001CD51F6
:1003B800D9260001CE51DA22060EDF6E000120EEAA
:1003C8000CF00001CD51D9260001CE51DA22050EDC
:1003D800DF6E5DD0496E010E00010001946F495037
:1003E80056D0000100019551D8B472D0000120EE1A
:1003F8000BF00001CD51D9260001CE51DA22DF2AB7
:10040800C7AA25D0000120EE0AF00001CD51D92657
:100418000001CE51DA22DF50496E4950010DF350E8
:1004280000010001CD25D96EF45000010001CE2154
:10043800DA6E000192C0DFFF000120EE0AF0000131
:10044800CD51D9260001CE51DA22DF2A41D0C7A4E6
:10045800C1D6000120EE0CF00001CD51D9260001D3
:10046800CE51DA22080EDF6E496E010E000100013E
:10047800946F4950496E010E00010001936F495075
:10048800496E000E00010001956F495021D000010E
:1004980020EE0CF00001CD51D9260001CE51DA2210
:1004A800050E3DD7000120EE0CF00001CD51D926F4
:1004B8000001CE51DA22DF50050AD8B452D6030A19
:1004C800D8B46ED6010AD8B42CD70F0AD8B4E2D65D
:1004D80000010001956705D0000100019051D8B4D2
:1004E80002D0C6A8C688000120EE0AF00001CD514E
:1004F800D9260001CE51DA22080EDF6424D000018B
:100508000001946720D0000120EE0CF00001CD51CD
:10051800D9260001CE51DA22050EDF6E000120EE49
:100528000EF00001CD51D9260001CE51DA22DF2A82
:10053800000120EE0DF00001CD51D9260001CE5169
:10054800DA22070EDF6E000100019451D8B43ED0C4
:10055800000120EE0BF00001CD51D9260001CE514B
:10056800DA22000110EE0AF00001CD51E126000167
:10057800CE51E222E750496E4950010DF350000177
:100588000001CD25E16EF45000010001CE21E26E9C
:10059800DFCFE7FF496E280E456E49500001CEC0F7
:1005A80047F00001CDC046F0000120EE0AF000013E
:1005B800CD51D9260001CE51DA22DF504A6E4A28A1
:1005C800C8EC0DF0000120EE0AF043D0000120EE47
:1005D8000EF00001CD51D9260001CE51DA22DF50AC
:1005E800D8B43FD0000120EE0EF00001CD51D9263D
:1005F8000001CE51DA22DF50000100018D6F0001A9
:1006080020EE0DF00001CD51D9260001CE51DA229D
:10061800DF50000100018E6F000120EE0BF0000199
:10062800CD51D9260001CE51DA22DF500001000158
:100638008F6F496E290E456E49500001000E476EB6
:1006480000018D0E466E030EC8EC0DF0000120EE81
:100658000EF00001CD51D9260001CE51DA22000E4C
:10066800DF6E000100019351D8B41200000E0001A2
:1006780000018C6F020E00018B6FFDEC0DF02F5006
:1006880000010001806F496EAA0E00010001816F10
:1006980049500001000E306E0001800E2F6E0001DF
:1006A80000018B5174EC06F0496E000E0001000148
:1006B800936F49501200820ED36E9B9C0101010E6C
:1006C80000010001A96F0101B40E00010001A86F2B
:1006D8000DEC0EF00101010E00010001A96F0101EE
:1006E800BB0E00010001A86F55EC0BF00101010ED3
:1006F80000010001A96F0101B20E00010001A86FFD
:1007080036EC0EF01EEC0BF049EC0CF0000E936E7C
:10071800000E8A6E850E77EC0DF06EEC0EF09F9051
:100728009F9A9F869F8C9E0EA1EC0DF09D86000ED1
:1007380000010001A96F190E0001A86F6C0E62EC90
:1007480009F0C1EC08F00101010E00010001C16FC0
:100758000101B90E00010001C06F0101010E000185
:100768000001C36F0101A20E00010001C26F0A0E51
:100778008BEC0CF001010101BA6F01010101BABF54
:100788008DD07DD00101010E00010001C36F010170
:10079800B00E00010001C26F01010001B9C1C4F02F
:1007A80000010001C56B01010101BA5100010001FE
:1007B800C66F0001C76B0001C6BFC7070101010E64
:1007C80000010001C96F0101A20E00010001C86FFC
:1007D800E5EC0AF063D0A2C1AFF160D00001CC6FA4
:1007E800020E01010101BA6F0001CC51EDEC0DF0D0
:1007F80000010001A85101010101A26F0001CC6FA5
:10080800AA0E01010101A36F0001CC5128D00001FB
:10081800CC6F010E01010101BA6F0001CC51EDEC62
:100828000DF00AD00001CC6F010E01010101BA6F71
:100838000001CC51EDEC0DF000010001A8510101BF
:100848000101A26F0CD001010101AF51A80AD8B46F
:10085800DED7010AD8B4E6D7030AD8B4BFD7010156
:10086800010E00010001A96F0101A20E00010001A3
:10087800A86F01010101BA516BEC05F00FD001011D
:100888000101B9510A0AD8B47DD7220AD8B4A3D72E
:10089800010AD8B4A0D7030AD8B4D5D70101010EEC
:1008A80000010001C16F0101B90E00010001C06F14
:1008B8000101010E00010001C36F0101A20E000138
:1008C8000001C26F0A0E6AEC0CF001010101BA6F57
:1008D80001010101BABF35D752D00101010E000153
:1008E8000001C36F0101B20E00010001C26F0101D6
:1008F8000001B9C1C4F000010001C56B010101018B
:10090800BA5100010001C66F0001C76B0001C6BFE4
:10091800C7070101010E00010001C96F0101A20E04
:1009280000010001C86FACEC0AF00BD70101010E01
:1009380000010001A96F0101AD0E00010001A86FBF
:1009480001010001B9C1AAF000010001AB6B01016E
:100958000101BA5100010001AC6F0001AD6B00014B
:10096800ACBFAD070101010E00010001AF6F01012D
:10097800A20E00010001AE6F0BEC0DF0E2D60101F2
:100988000101B9510B0AD8B4A8D7150AD8B4CED7E3
:10099800010AD8B4CBD7D5D6000120EE35F0000136
:1009A800B251D9260001B351DA22DF50000100010B
:1009B800BB6F00010001BB510D0DF3500001000198
:1009C800B22500010001BE6FF45000010001B321FF
:1009D8000001BF6F010EBEC0D9FFBFC0DAFFDF62E2
:1009E80074D0000120EE01F00001BE51D9260001AB
:1009F800BF51DA22DF5000010001B45DD8B002D047
:100A0800FD0E1200000120EE01F00001BE51D926B2
:100A18000001BF51DA22DF500001B96F0001B9515E
:100A280000010001BC6F0001BD6B00010001B8C0EE
:100A3800A9F000010001B7C0A8F0030E00010001F1
:100A4800BE250001B96F000E00010001BF210001A1
:100A5800BA6FB9C0AAF0BAC0ABF0BCC0ACF0BDC0A8
:100A6800ADF08AEC0BF0000120EE35F00001B25138
:100A7800D9260001B351DA22000110EE35F0000149
:100A8800B251E1260001B351E222E7500001B96FEB
:100A98000001B929030BDF6E000120EE02F000010E
:100AA800BE51D9260001BF51DA22B5C0E1FFB6C058
:100AB800E2FFDFCFE7FFBEC0D9FFBFC0DAFF000EFD
:100AC800DF6E00010001BC511200FC0E1200E8CFDD
:100AD800ACF0000120EE19F00001CD51D92600013B
:100AE800CE51DA22000EDF6E42D0000120EE19F05E
:100AF8000001CD51D9260001CE51DA22DF50000184
:100B0800AA6F0001AA51010DF35000010001A825A8
:100B1800D96EF45000010001A921DA6E000110EE2F
:100B280019F00001CD51E1260001CE51E222E75033
:100B38000001AB6F0001AB51010D0F0EF326000E43
:100B4800F422F35000010001CD25E16EF4500001BC
:100B58000001CE21E26EDFCFE7FF000120EE19F0A1
:100B68000001CD51D9260001CE51DA22DF2A000139
:100B780020EE19F00001CD51D9260001CE51DA221C
:100B8800DF500001AA6F00010001AC510001AA5D0D
:100B9800D8A0ABD7000120EE19F00001CD51D9261D
:100BA8000001CE51DA220001ACC0DFFF000120EEC7
:100BB8001AF00001CD51D9260001CE51DA22010EDA
:100BC800DF6E000120EE0FF00001CD51D9260001A3
:100BD800CE51DA22DF50C96EC6881200000100012A
:100BE800B4C0B9F000010001BA6B000120EE34F086
:100BF8000001B251D9260001B351DA22DF500001B9
:100C08000001BB6F00010001BB510D0DF350000145
:100C18000001B22500010001BC6FF4500001000181
:100C2800B3210001BD6FBCC0D9FFBDC0DAFFDF50E2
:100C3800D8B402D0FF0E1200000120EE01F000012E
:100C4800BC51D9260001BD51DA220001B4C0DFFF32
:100C5800000120EE02F00001BC51D9260001BD516F
:100C6800DA220001B5C0DFFF030E00010001BC2538
:100C780000010001A86F000E00010001BD21000164
:100C8800A96F00010001B7C0ABF000010001B6C0B8
:100C9800AAF0B9C0ACF0BAC0ADF08AEC0BF0000114
:100CA80020EE34F00001B251D9260001B351DA2206
:100CB800000110EE34F00001B251E1260001B351F9
:100CC800E222E7500001B86F0001B829030BDF6E7C
:100CD800BCC0D9FFBDC0DAFF010EDF6E010E1200E5
:100CE800E8CF33F0000120EE19F00001CD51D926EC
:100CF8000001CE51DA22000EDF6E3AD0000120EE5C
:100D080019F00001CD51D9260001CE51DA22DF5069
:100D1800316E3150010DF3502F24D96EF45030202C
:100D2800DA6E000110EE19F00001CD51E126000144
:100D3800CE51E222E750326E3250010D0F0EF326EB
:100D4800000EF422F35000010001CD25E16EF450AD
:100D580000010001CE21E26EDFCFE7FF000120EEA7
:100D680019F00001CD51D9260001CE51DA22DF2A2F
:100D7800000120EE19F00001CD51D9260001CE5115
:100D8800DA22DF50316E3350315CD8A0B7D700017A
:100D980020EE19F00001CD51D9260001CE51DA22FA
:100DA80033C0DFFF000120EE1AF00001CD51D92633
:100DB8000001CE51DA22010EDF6E000120EE0FF0A5
:100DC8000001CD51D9260001CE51DA22DF50C96E7B
:100DD800C688120020EE35F03950D9263A50DA226A
:100DE800DF50426E42500D0DF3503924456EF450D9
:100DF8003A20466E010E45C0D9FF46C0DAFFDF62D1
:100E080050D020EE01F04550D9264650DA22DF5066
:100E18003B5CD8B002D0FD0E120020EE01F0455028
:100E2800D9264650DA22DF50406E4050436E446A5D
:100E38003FC030F03EC02FF0030E4524406E000E38
:100E48004620416E40C031F041C032F043C033F01B
:100E580044C034F0CCEC0CF020EE35F03950D926F3
:100E68003A50DA2210EE35F03950E1263A50E222B3
:100E7800E750406E4028030BDF6E20EE02F045502D
:100E8800D9264650DA223CC0E1FF3DC0E2FFDFCF61
:100E9800E7FF45C0D9FF46C0DAFF000EDF6E4350BA
:100EA8001200FC0E1200E8CF2FF0000120EE0BF02C
:100EB8000001CD51D9260001CE51DA22010EDF6E94
:100EC800000120EE0AF00001CD51D9260001CE51D3
:100ED800DA22000EDF6E2F50D8B43DD0C7AA21D039
:100EE800000120EE0CF00001CD51D9260001CE51B1
:100EF800DA22050EDF6E000120EE0EF00001CD5162
:100F0800D9260001CE51DA22DF2A000120EE0DF0A9
:100F18000001CD51D9260001CE51DA22050EDF6E2F
:100F28001200C7A40CD0000120EE0CF00001CD5136
:100F3800D9260001CE51DA22080EDF6E1200000118
:100F480020EE0CF00001CD51D9260001CE51DA2255
:100F5800070EDF6E1200000120EE0CF00001CD51EB
:100F6800D9260001CE51DA22060EDF6E1200E9CF33
:100F78009AF0EACF9BF0E1CF9CF0E2CF9DF0D9CF79
:100F88009EF0DACF9FF0F3CFA0F0F4CFA1F0F6CF28
:100F9800A2F0F7CFA3F0F8CFA4F0F5CFA5F09EA666
:100FA80003D09E965FEC00F0F2A403D0F2946FECAD
:100FB8000AF09EAC19D09E9C69EC0EF02FC0A6F0EA
:100FC80030C0A7F00001A6C096F00001A7C097F0B6
:100FD8000001973597339633000197359733963349
:100FE80096C0CFF097C0D0F0B9EC0BF0A5C0F5FFD4
:100FF800A4C0F8FFA3C0F7FFA2C0F6FFA1C0F4FF8A
:10100800A0C0F3FF9FC0DAFF9EC0D9FF9DC0E2FFDA
:101018009CC0E1FF9BC0EAFF9AC0E9FF99C0FBFFB3
:1010280098C0FAFF11000DC012F0136A20EE34F0D8
:101038000B50D9260C50DA22DF50146E14500D0DC7
:10104800F3500B24156EF4500C20166E15C0D9FF02
:1010580016C0DAFFDF50D8B402D0FF0E120020EE1F
:1010680001F01550D9261650DA220DC0DFFF20EE08
:1010780002F01550D9261650DA220EC0DFFF030EF3
:101088001524016E000E1620026E10C004F00FC069
:1010980003F012C005F013C006F0ACEC0CF020EE23
:1010A80034F00B50D9260C50DA2210EE34F00B50E5
:1010B800E1260C50E222E750116E1128030BDF6E77
:1010C80015C0D9FF16C0DAFF010EDF6E010E12003F
:1010D8003BC040F0416A20EE34F03950D9263A50EE
:1010E800DA22DF50426E42500D0DF3503924436E20
:1010F800F4503A20446E43C0D9FF44C0DAFFDF50B1
:10110800D8B402D0FF0E120020EE01F04350D926C9
:101118004450DA223BC0DFFF20EE02F04350D926CC
:101128004450DA223CC0DFFF030E43242F6E000E2A
:101138004420306E3EC032F03DC031F040C033F044
:1011480041C034F0CCEC0CF020EE34F03950D92604
:101158003A50DA2210EE34F03950E1263A50E222C1
:10116800E7503F6E3F28030BDF6E43C0D9FF44C0F2
:10117800DAFF010EDF6E010E120027EC0CF0000101
:101188000001AD510001AC11D8B412008A860001EB
:10119800AE6F010E4F6E0001AE510101010E00014C
:1011A8000001A96F0101360E00010001A86F45EC8E
:1011B8000DF00009D8B408D00001AE6F000E4F6ED4
:1011C8000001AE518A9612000101010E00010001D2
:1011D800A96F01016C0E00010001A86F45EC0DF02C
:1011E8000009D8B408D00001AE6F000E4F6E0001A0
:1011F800AE518A9612000A0E2BEC0EF08AB602D077
:10120800010E01D0000E0001AE6F0001AE47AE47DF
:10121800AE478A500001AE19F70BAE198A6EBDD7DA
:101228009EAA3CD020EE04F04D50D9264E50DA222A
:10123800DF501B6E1B50010DF3504D24D96EF45036
:101248004E20DA6E1CEC0EF0DF6E20EE04F04D50EE
:10125800D9264E50DA22DF2A20EE04F04D50D92646
:101268004E50DA22040EDF6219D01B6E1F0E176E65
:101278001B504EC019F04DC018F020EE04F04D5030
:10128800D9264E50DA22DF50B5EC0DF020EE04F0EE
:101298004D50D9264E50DA22000EDF6E50A61200AD
:1012A800AB98AB881B6E1E0E176E1B50000E196E86
:1012B800000E186E000EB5EC0DF01200E8CFADF080
:1012C800000EAC6E000EAB6E00010001ADB1AC8833
:1012D80000010001ADA302D0AC8CAB8C0001000171
:1012E800ADB5AC8E00010001ADA702D0AB8801D02E
:1012F800AB8A00010001ADB9AC849E9800010001E1
:10130800ADBBAB8600010001ADAD02D09D8A01D016
:101318009D9A9E9A00010001ADAF02D09D8801D030
:101328009D98A8C0AFFF0001A9C0AAF0AAC0ABF061
:101338000001AC6B0001AB51B06EAC8AAB8E949CD3
:10134800948EACA81200ACBE1200948C120000015E
:101358000001AB51AA11D8B43AD00001AC6F010E0C
:1013680000010001AD6F0001AC5109D0000100017E
:101378000001D890AA37AB3700010001AD2B00015E
:101388000001ABAFF3D700010001AA510001000131
:10139800A85D00010001AB5100010001A959D8A0C6
:1013A8000CD000010001AA5100010001A85F000152
:1013B8000001AB5100010001A95B0001000100011F
:1013C800D890AB33AA3300010001AD2FDCD7A8C0F9
:1013D800A8F0A9C0A9F01200E8CFACF0000EC26EC8
:1013E800000EC06E00010001D890A8313C0BC26EFF
:1013F800A8C0AAF00001AA3BF00EAA17300E0001FF
:10140800AA1700010001A9510F0B0001AA11C16E12
:10141800ACC0AAF00001D890AA370001D890AA372A
:10142800380E0001AA17ACC0ABF00001AB3B0F0EA1
:10143800AB17070E0001AB1700010001AC51800B80
:101448000001AB110001AA11C06E00010001A8AF94
:1014580003D09E9C9D8CF28CC2801200000120EE6D
:1014680034F00001A851D9260001A951DA22000E52
:10147800DF6E000120EE35F00001A851D9260001E9
:10148800A951DA22000EDF6E0001AA6F000E0001DA
:101498000001AB6F0001AA51030E00010001AB650A
:1014A80001D0120000010001AB510D0DF3500001F5
:1014B8000001A825D96EF45000010001A921DA6EB7
:1014C800000EDF6E00010001AB2B030E00010001CE
:1014D800AB65E8D712008AB002D0010E01D0000E29
:1014E8004C6E8A504C18FE0B4C188A6E000E306EEB
:1014F800000E2F6E5AEC0EF00001000E486E00012F
:10150800820E476E0001000E4A6E0001840E496E7D
:10151800020E8CEC0DF000010001806F0001816B60
:10152800000180BF8107000100018051020A81117A
:10153800D8A412004C6E0A0E456E4C500001000EE5
:10154800476E0001840E466E020EC8EC0DF01200C4
:10155800C2C0D9FFC3C0DAFFDE2A000EDD22C2C036
:10156800D9FFC3C0DAFF0001DECFA8F00001DDCF4C
:10157800A9F0000E00010001AB6F0A0E0001AA6F6E
:10158800ABEC09F000010001A851090A0001A911FA
:10159800D8A412000001CA6F140E00010001BE6F2A
:1015A8000001CA5100010001C3C0C0F000010001E0
:1015B800C2C0BFF0020E2AEC0DF000010001CB6F93
:1015C8001200C2C0D9FFC3C0DAFFDE2A000EDD2236
:1015D800C2C0D9FFC3C0DAFF0001DECFA8F0000106
:1015E800DDCFA9F0000E00010001AB6F0A0E00016B
:1015F800AA6FABEC09F000010001A851090A00012B
:10160800A911D8A412000001CA6F140E000100012C
:10161800BE6F0001CA5100010001C3C0C0F0000143
:101628000001C2C0BFF0020E2AEC0DF0000100015B
:10163800CB6F12000001AC6F000E4F6E0001AC5171
:101648000101010E00010001A96F01016C0E0001EA
:101658000001A86F32EC0AF00101010E000100013F
:10166800A96F0101360E00010001A86F32EC0AF0E3
:101678000101010E00010001A96F0101000E000126
:101688000001A86F32EC0AF00201020E000100010D
:10169800A96F0201000E00010001A86F32EC0AF0E8
:1016A800120000010001A9C0CEF000010001A8C08D
:1016B800CDF0000120EE0AF00001CD51D92600013D
:1016C800CE51DA22000EDF6E000120EE0BF0000191
:1016D800CD51D9260001CE51DA22000EDF6E00016D
:1016E80020EE0CF00001CD51D9260001CE51DA22AE
:1016F800050EDF6E000120EE0EF00001CD51D92657
:101708000001CE51DA22000EDF6E12000001000146
:10171800ABC0B1F000010001AAC0B0F000010001A7
:10172800A9C0AFF000010001A8C0AEF012D0B0C04F
:10173800D9FFB1C0DAFFAEC0E1FFAFC0E2FFDFCF33
:10174800E7FF00010001B04BB12B00010001AE4BD7
:10175800AF2B00010001AC07D8A0AD070001AC29F0
:10176800D8B4AD29D8B41200E2D74F6601D0120020
:1017780060EC0DF032503110D8A4120063EC0EF07A
:1017880030502F10D8B412000101010E306E010143
:10179800360E2F6EDBEC0DF00009D8A41200010103
:1017A800010E306E01016C0E2F6EDBEC0DF000099E
:1017B800D8B472EC0EF012008AB202D0010E01D039
:1017C800000E1B6E1B468A501B18FD0B1B188A6ED9
:1017D80051EC0EF001C01CF002C01DF01B6E0B0E88
:1017E800176E1B50000E196E000E186E000EB5EC29
:1017F8000DF0000E026E000E016E48EC0EF01200A5
:10180800F2AC08D0000E00010001AB6F000E000121
:10181800AA6F12003FEC0EF000010001A95100016F
:10182800A811D8B408D0000E00010001AB6F000E5B
:101838000001AA6F1200000E00010001AB6F010E3B
:101848000001AA6F120004EC0CF000010001AB517A
:101858000001AA11D8A411D03FEC0EF0000100013C
:10186800A9510001A811D8A408D0000E0001000158
:10187800AD6F010E0001AC6F1200000E00010001F7
:10188800AD6F000E0001AC6F1200000E00010001E8
:10189800B06F000E0001AF6F0001AD6F840E000144
:1018A8000001A86F0001AD510001AE6FFF0E0001ED
:1018B8000001A96F0001AE518F0EF0EC09F09E9C5B
:1018C800F28C9D8CF28E75EC0EF01200E8CFC4F00D
:1018D8000101010E00010001B36F01016C0E00014E
:1018E8000001B26FC4C0B4F000010001C1C0B6F07D
:1018F80000010001C0C0B5F000010001C3C0B8F08C
:1019080000010001C2C0B7F0D0EC04F01200E8CF2B
:10191800C4F00101010E00010001B36F0101360E90
:1019280000010001B26FC4C0B4F000010001C1C0E1
:10193800B6F000010001C0C0B5F000010001C3C04D
:10194800B8F000010001C2C0B7F0D0EC04F01200FA
:1019580004C00AF003C009F002C008F001C007F093
:101968000ED009C0D9FF0AC0DAFF07C0E1FF08C0DE
:10197800E2FFDFCFE7FF094A0A2A074A082A0506D5
:10198800D8A006060528D8B40628D8B41200E9D786
:1019980032C038F031C037F030C036F02FC035F0E3
:1019A8000ED037C0D9FF38C0DAFF35C0E1FF36C0E6
:1019B800E2FFDFCFE7FF374A382A354A362A3306AF
:1019C800D8A034063328D8B43428D8B41200E9D7BC
:1019D80002EE00F0360EEE6AE806FDE101EE00F0D8
:1019E800A20EEE6AE806FDE1506A4F6AF20EF66E44
:1019F8001C0EF76E000EF86E0900F5CFCFF0090047
:101A0800F5CFD0F0000EF86E00015FEF03F0000193
:101A18000001AA511E0AAB11D8B41200000100013E
:101A2800AA511F0AAB11D8A4120000010001AC5141
:101A380000010001AE25D96E00010001AD51000181
:101A48000001AF21DA6E000EDF6E1200E8CFC1F0A0
:101A58000201020E00010001B36F0201000E000135
:101A68000001B26FC1C0B4F0BEC0B5F00001000102
:101A7800C0C0B7F000010001BFC0B6F0F2EC05F03D
:101A88001200000120EE35F00001A851D92600010E
:101A9800A951DA22DF500001AA6F0001AA510D0DE9
:101AA800F35000010001A825D96EF450000100018F
:101AB800A921DA6EDF501200F2AC05D0000E326EAA
:101AC800000E316E120063EC0EF030502F10D8B4B7
:101AD80005D0000E326E000E316E1200000E326E0E
:101AE800010E316E1200E8CFA8F000010001A851E4
:101AF8007F0BD56E000ED76E000ED66EF2940001E5
:101B08000001A8AF02D0F28A01D0F29AD58E120055
:101B1800E8CF4BF00201020E3A6E0201000E396E58
:101B28004BC03BF048C03DF047C03CF04AC03FF0D6
:101B380049C03EF0EEEC06F01200E8CFA8F094861B
:101B48009488A8C0C8FF000EC76E000EC66E000EAF
:101B5800C56E0E0EC612C78E94869488C580C68A36
:101B68001200E8CF1AF00101010E0C6E01016C0E93
:101B78000B6E1AC00DF017C00EF019C010F018C087
:101B88000FF017EC08F01200E8CF48F00101010E41
:101B98003A6E0101360E396E48C03BF045C03CF044
:101BA80047C03EF046C03DF06CEC08F0120020EE55
:101BB80035F02F50D9263050DA22DF50316E3150AF
:101BC8000D0DF3502F24D96EF4503020DA6EDF500B
:101BD8001200CFC0AAF0D0C0ABF0000E0001000187
:101BE800D06F010E0001CF6FAAC0A8F0ABC0A9F05A
:101BF8001200CFC031F0D0C032F0000E0001000159
:101C0800D06F010E0001CF6F31C02FF032C030F01D
:101C180012000001A9C04EF00001A8C04DF020EE4E
:101C280004F04D50D9264E50DA22000EDF6E120015
:101C3800F20E5016ABAC03D05090ABB05080ABB4A2
:101C48005084ABB25086AECF01F001501200E8CFFD
:101C5800A8F0FA0E00F0E82EFDD700010001A82F29
:101C6800F8D71200A8C0D9FFA9C0DAFF000EDE6EAF
:101C7800000EDD6E1200000EF2AE010E0001000132
:101C8800A86F0001A96B120001C003F002C004F0A4
:101C980004C0CFFF03C0CEFF1200CECF03F0CFCFDA
:101CA80004F003C001F004C002F012002FC031F0AC
:101CB80030C032F032C0D7FF31C0D6FF1200000E5C
:101CC800F2AE010E2F6E306A1200C450306EC3504F
:101CD8002F6E1200D08EF28EF28C1200D38E03007B
:0C1CE8001200C2821200C2821200020030
:067FF80080F4C5FFFFF15B
:00000001FF
