:0400000061EF00F0BC
:0C000800FACFAAF0FBCFABF03CEF07F002
:10001800D8CF1CF0E8CF1DF0E0CF1EF0FACF1FF0CC
:10002800FBCF20F0E9CF21F0EACF22F0E1CF23F097
:10003800E2CF24F0D9CF25F0DACF26F0F3CF27F09E
:10004800F4CF28F0F6CF29F0F7CF2AF0F8CF2BF02D
:10005800F5CF2CF09EA003D09E90F6EC0EF09EAA51
:1000680003D09E9A10EC0FF09DB89EA803D09D98DF
:1000780052EC0BF02CC0F5FF2BC0F8FF2AC0F7FF9D
:1000880029C0F6FF28C0F4FF27C0F3FF26C0DAFF17
:1000980025C0D9FF24C0E2FF23C0E1FF22C0EAFF48
:1000A80021C0E9FF20C0FBFF1FC0FAFF1EC0E0FF10
:1000B8001DC0E8FF1CC0D8FF100092EF0BF0000134
:1000C8009A6F000E00010001A76F00019A5100010C
:1000D8009A6F000E00010001A26F00019A51000101
:1000E8009A6F000E00010001A66F00019A510001ED
:1000F8009A6F000E00010001A56F00019A510001DE
:100108009A6F000E00010001A36F00019A51C6AC5E
:1001180020D0C69C20EE0CF06150D9266250DA221D
:10012800050EDF6E00019A6F010E00010001A36F3A
:1001380000019A5120EE0EF06150D9266250DA2261
:10014800DF2A20EE0DF06150D9266250DA22040E23
:10015800DF6EC7A00AD0C9CFA4F000019A6F010EC4
:1001680000010001A76F00019A5100010001A36777
:1001780074D160D1C7A671D100010001A751EBEC81
:1001880009F020EE0CF06150D9266250DA22080EF0
:10019800DF6263D100019A6F000E00010001A76FB2
:1001A80000019A5100019A6F010E00010001A56F2C
:1001B80036D1C7A827D020EE0BF06150D92662505F
:1001C800DA22DF2A00010001A751D8B42BD1C7BA1F
:1001D80009D000019A6F010E00010001A66F00010D
:1001E8009A5120D120EE0EF06150D9266250DA22C1
:1001F800DF2A20EE0DF06150D9266250DA22060E71
:10020800DF6E10D100010001A751D8B426D120EE2D
:100218000BF06150D9266250DA22DF2AC7BA13D010
:10022800C7B408D020EE0CF06150D9266250DA220B
:10023800070E5AD020EE0CF06150D9266250DA220F
:10024800080EDF6EDED020EE0EF06150D926625027
:10025800DA22DF2A20EE0CF06150D9266250DA2229
:10026800050EDF6E20EE0DF06150D9266250DA22BD
:10027800060E3AD020EE1AF06150D9266250DA22E2
:10028800DF5000019A6F20EE19F06150D9266250B4
:10029800DA22DF5000019A5DD8B0C4D020EE1AF0FF
:1002A8006150D9266250DA22DF5000019A6F0001AE
:1002B8009A51010D0F0EF326000EF422F35061241B
:1002C800D96EF4506220DA6EDF50C96E20EE1AF053
:1002D8006150D9266250DA22DF2A00019A6F010E96
:1002E80000010001A26F9BD0DF6EB7D0C7A84CD029
:1002F80020EE0BF06150D9266250DA22DF2A000185
:100308000001A751D8B437D0C7AA1DD020EE0AF0F3
:100318006150D9266250DA22DF5000019A6F00013D
:100328009A51010DF3506124D96EF4506220DA6EAF
:100338000001A4C0DFFF20EE0AF06150D926625008
:10034800DA22DF2A18D020EE0EF06150D92662504A
:10035800DA22DF2A20EE0DF06150D9266250DA2227
:10036800060EDF6E20EE0CF06150D9266250DA22BC
:10037800050EDF6E57D000019A6F010E00010001D3
:10038800A66F00019A514ED000010001A751D8B4C0
:1003980064D020EE0BF06150D9266250DA22DF2AB1
:1003A800C7AA1DD020EE0AF06150D9266250DA2281
:1003B800DF5000019A6F00019A51010DF35061243A
:1003C800D96EF4506220DA6E0001A4C0DFFF20EE7F
:1003D8000AF06150D9266250DA22DF2A3ED0C7A43B
:1003E80001D720EE0CF06150D9266250DA22080EAF
:1003F800DF6E00019A6F010E00010001A66F000177
:100408009A5100019A6F010E00010001A56F0001C9
:100418009A5100019A6F000E00010001A76F0001B8
:100428009A511BD020EE0CF06150D9266250DA2286
:10043800050E5AD720EE0CF06150D9266250DA2208
:10044800DF50050AD8B496D6030AD8B4B2D6010A42
:10045800D8B44CD70F0AD8B40DD700010001A7674C
:1004680005D000010001A251D8B402D0C6A8C688A0
:1004780020EE0AF06150D9266250DA22080EDF64B5
:100488001BD000010001A66717D020EE0CF06150C8
:10049800D9266250DA22050EDF6E20EE0EF061508A
:1004A800D9266250DA22DF2A20EE0DF06150D926D3
:1004B8006250DA22070EDF6E00010001A651D8B49F
:1004C8001DD020EE0BF06150D9266250DA2210EED2
:1004D8000AF06150E1266250E222E75000019A6F6B
:1004E80000019A51010DF3506124E16EF45062202D
:1004F800E26EDFCFE7FF20EE0AF03ED020EE0EF0EE
:100508006150D9266250DA22DF50D8B43BD020EEB1
:100518000EF06150D9266250DA22DF500001000146
:100528009F6F20EE0DF06150D9266250DA22DF501D
:1005380000010001A06F20EE0BF06150D926625037
:10054800DA22DF5000010001A16F00019A6F290E25
:1005580000010001966F00019A510001000E000190
:100568000001986F00019F0E00010001976F030EB4
:10057800DBEC0EF020EE0EF06150D9266250DA2244
:10058800000EDF6E00010001A551D8B41200000E64
:10059800000100019C6F0A0E00019B6F53EC0EF0E6
:1005A800000180C09DF0000181C09EF000010001A3
:1005B8009EC081F0000100019DC080F00001000193
:1005C8009B51D2EC08F000019A6F000E0001000167
:1005D800A56F00019A5112000101C76F000E0201B8
:1005E8000201106F0101C751820ED36E9B9C02015C
:1005F800020E01010101A46F02011B0E010101019C
:10060800A36F15EC0DF00201020E01010101A46FA8
:100618000201370E01010101A36F3FEC0DF0020149
:10062800020E01010101A46F0201150E0101010171
:10063800A36F92EC0FF00201020E01010101A46FF9
:100648000201170E01010101A36F9BEC0FF07EEC74
:100658000CF0000E936E000E8A6E9F98D7EC0FF088
:100668009F909F9A9F869F8C9D86000E0101010195
:10067800A46F260E0101A36F7C0E82EC0AF0910E86
:1006880026EC0FF089EC0DF09C0E3BEC0FF08A8EF7
:100698003DEC09F00201020E01010101BC6F0201EB
:1006A800190E01010101BB6F0201020E01010101D6
:1006B800BE6F0201030E01010101BD6F0A0E12ECAB
:1006C8000EF0020102011A6F020102011ABFE3D003
:1006D800CFD00201020E01010101BE6F0201170E07
:1006E80001010101BD6F0201010119C2BFF1010140
:1006F8000101C06B020102011A5101010101C16F20
:100708000101C26B0101C1BFC2070201020E010152
:100718000101C46F0201030E01010101C36F45EC21
:100728000CF0B9D003C200F2B6D0010101010005F6
:10073800D8A486D00201020103C213F20201020109
:10074800146B020102011451800A800F010ED8B403
:10075800135DD8A0A0D0000E02010201126F000E96
:100768000201116F1BD00201030E020102011125C3
:10077800D96E0201020E020102011221DA6EDF5067
:100788000101C76F0101C751020102010E27000EC6
:1007980002010F2302010201114B122B0201020177
:1007A8001251800A0101C76F0201135102010201AF
:1007B800115D020102011451800A0101C759D8A034
:1007C800D2D70EC2A3F10FC2A4F113C2A5F114C26D
:1007D800A6F106EC06F00101A3C10EF20101A4C1C5
:1007E8000FF21E0E02010201045DD8B054D00201BE
:1007F80002011005D8A44FD00101C76F020E0101F4
:100808000101006F0101C7510101C76F000E02010C
:100818000201106F0101C7510101C76F050E0101E7
:100828000101A36F0101C7510101C86F4F0E0101FA
:100838000101A46F0101C8510A0E39EC0AF02BD04E
:100848000101C76F2F0E01010101B96F0101C751E5
:100858000201020E01010101BB6F0201030E010139
:100868000101BA6F020102011A51A5EC0EF013D072
:100878000201020119510A0AD8B42BD7220AD8B4A6
:100888000AD0010AD8B44ED7030AD8B404D0070A4C
:10089800D8B44BD71A0A0201020E01010101BC6F3C
:1008A8000201190E01010101BB6F0201020E0101D3
:1008B8000101BE6F0201030E01010101BD6F0A0EA5
:1008C800F1EC0DF0020102011A6F020102011ABFD8
:1008D800DFD652D00201020E01010101BE6F0201F2
:1008E800150E01010101BD6F0201010119C2BFF11D
:1008F80001010101C06B020102011A51010101014C
:10090800C16F0101C26B0101C1BFC2070201020E22
:1009180001010101C46F0201030E01010101C36F4E
:100928000CEC0CF0B5D60201020E01010101A46F16
:100938000201010E01010101A36F0201010119C2A7
:10094800A5F101010101A66B020102011A51010181
:100958000101A76F0101A86B0101A7BFA807020148
:10096800020E01010101AA6F0201030E010101013A
:10097800A96F66EC0DF08CD60201020119510B0A21
:10098800D8B4A8D7150AD8B4CED7010AD8B4CBD7CB
:10099800300AD8B4C8D77CD6E8CF03F013D10350B7
:1009A8002B0AD8A41200000120EE0BF00001F5512B
:1009B800D9260001F651DA22350EDF6E12000350F7
:1009C8009F0AD8B41200000120EE0BF00001F55187
:1009D800D9260001F651DA22300EDF6E120000012E
:1009E80020EE0AF00001F551D9260001F651DA226D
:1009F800000EDF6E000120EE0FF00001F551D92640
:100A08000001F651DA22000EDF6E000120EE0CF034
:100A18000001F551D9260001F651DA2203C0DFFFA3
:100A2800F5C0D9FFF6C0DAFF03C0DFFF000120EEF2
:100A38000BF00001F551D9260001F651DA22360EE5
:100A4800DF6E1200000120EE0EF00001F551D926EC
:100A58000001F651DA2203C0DFFF1200000120EE88
:100A680001F00001F551D9260001F651DA2203C040
:100A7800DFFF000120EE0DF00001F551D92600013D
:100A8800F651DA2203C0DFFF000120EE0AF0000170
:100A9800F551D9260001F651DA22000EDF6E000169
:100AA80020EE0FF00001F551D9260001F651DA22A7
:100AB800000EDF6E000120EE0BF00001F551D92683
:100AC8000001F651DA22330EDF6E1200000120EE2B
:100AD8000FF00001F551D9260001F651DA22DF5056
:100AE800016E026A020E0126000E02220250800ADE
:100AF800F36E800EF35C0A0ED8B4015CD8B01CD03B
:100B0800000120EE0FF00001F551D9260001F65141
:100B1800DA22DF50016E026A020E0126000E02225E
:100B2800015000010001F525D96E025000010001B5
:100B3800F621DA6E03C0DFFF000120EE0FF000019E
:100B4800F551D9260001F651DA22DF2A000120EEFC
:100B58000FF00001F551D9260001F651DA22090EED
:100B6800DF621200000120EE0BF00001F551D926DA
:100B78000001F651DA22340EDF6E120003505C0ACF
:100B8800000120EE0BF00001F551D9260001F651C5
:100B9800DA22300EDF6E000120EE0AF00001F55176
:100BA800D9260001F651DA22000EDF6E000120EE90
:100BB8000FF00001F551D9260001F651DA22000E96
:100BC800DF6E1200000120EE0BF00001F551D9266E
:100BD8000001F651DA22DF50300AD8B4E0D6010A13
:100BE800D8B4FDD6030AD8B439D7010AD8B46ED719
:100BF800070AD8B4C3D7010AD8B4E1D6030AD8A4DF
:100C0800120020D70101A76F000E01010101A96F91
:100C18000101A75101010101A651800AF36E800E5E
:100C2800F35C000ED8B4A55DD8B00FD00101010166
:100C3800A56D0101A61FD8B0A62B0101A76F010E53
:100C480001010101A96F0101A75101010101A4518D
:100C5800800AF36E800EF35C000ED8B4A35DD8B0A2
:100C68000BD001010101A36D0101A41FD8B0A42B71
:100C7800010E01010101A91B000E01010101AB6F69
:100C8800000E0101AA6F01010101A651A511D8B4F6
:100C980043D00101A76F010E01010101A86F0101F5
:100CA800A75109D0010101010101D890A537A63744
:100CB80001010101A82B01010101A6AFF3D7010130
:100CC80001010101D890AA37AB3701010101A551F3
:100CD80001010101A35D01010101A6510101010109
:100CE800A459D8A00FD001010101A55101010101AA
:100CF800A35F01010101A65101010101A45B0101EA
:100D08000101AA81010101010101D890A633A5338F
:100D180001010101A82FD3D701010101A951D8B4BC
:100D280007D001010101AA6D0101AB1FD8B0AB2B9F
:100D3800AAC1A3F1ABC1A4F11200010120EE35F064
:100D48000101AD51D9260101AE51DA22DF5001016E
:100D58000101B66F01010101B6510D0DF3500101FA
:100D68000101AD2501010101B96FF4500101010133
:100D7800AE210101BA6F010EB9C1D9FFBAC1DAFFBC
:100D8800DF6274D0010120EE01F00101B951D926CA
:100D98000101BA51DA22DF5001010101AF5DD8B07B
:100DA80002D0FD0E1200010120EE01F00101B9513F
:100DB800D9260101BA51DA22DF500101B46F0101CD
:100DC800B45101010101B76F0101B86B01010101C3
:100DD800B3C1A4F101010101B2C1A3F1030E0101E4
:100DE8000101B9250101B46F000E01010101BA2109
:100DF8000101B56FB4C1A5F1B5C1A6F1B7C1A7F19D
:100E0800B8C1A8F1B7EC0CF0010120EE35F00101F2
:100E1800AD51D9260101AE51DA22010110EE35F0AB
:100E28000101AD51E1260101AE51E222E750010175
:100E3800B46F0101B429030BDF6E010120EE02F04B
:100E48000101B951D9260101BA51DA22B0C1E1FF35
:100E5800B1C1E2FFDFCFE7FFB9C1D9FFBAC1DAFFFD
:100E6800000EDF6E01010101B7511200FC0E1200E5
:100E7800E9CFACF0EACFADF0E1CFAEF0E2CFAFF022
:100E8800D9CFB0F0DACFB1F0F3CFB2F0F4CFB3F0FE
:100E9800F6CFB4F0F7CFB5F0F8CFB6F0F5CFB7F09E
:100EA8009EA603D09E9663EC00F09EB29E92F2A49A
:100EB80005D0F294C0EC0EF0DFEC0FF09EBC9E9CC7
:100EC8008CBC02D0010E01D0000E0001A86F0001F9
:100ED800A83BA847A8478C500001A819BF0BA81920
:100EE8008C6EC8EC0FF0000180C0B8F0000181C022
:100EF800B9F00001B8C0A8F00001B9C0A9F000011C
:100F0800A935A933A8330001A935A933A8330001AD
:100F1800A851456E000E386E010E376E2D500A0A24
:100F28002E10D8A40AD0080E3324336E000E3420B5
:100F3800346E000E2E6E010E2D6E0001D40E2D247F
:100F4800D96E0001000E2E20DA6E45C0DFFF2D4A53
:100F58002E2A000E386E000E376EB7C0F5FFB6C0E9
:100F6800F8FFB5C0F7FFB4C0F6FFB3C0F4FFB2C0D6
:100F7800F3FFB1C0DAFFB0C0D9FFAFC0E2FFAEC027
:100F8800E1FFADC0EAFFACC0E9FFABC0FBFFAAC000
:100F9800FAFF110001010101AFC1B4F10101010122
:100FA800B56B010120EE34F00101AD51D9260101E4
:100FB800AE51DA22DF5001010101B66F01010101D2
:100FC800B6510D0DF35001010101AD2501010101DB
:100FD800B76FF45001010101AE210101B86FB7C12B
:100FE800D9FFB8C1DAFFDF50D8B402D0FF0E120023
:100FF800010120EE01F00101B751D9260101B851D4
:10100800DA220101AFC1DFFF010120EE02F0010188
:10101800B751D9260101B851DA220101B0C1DFFF69
:10102800030E01010101B72501010101A36F000EA3
:1010380001010101B8210101A46F01010101B2C13F
:10104800A6F101010101B1C1A5F1B4C1A7F1B5C172
:10105800A8F1B7EC0CF0010120EE34F00101AD511C
:10106800D9260101AE51DA22010110EE34F0010156
:10107800AD51E1260101AE51E222E7500101B36F03
:101088000101B329030BDF6EB7C1D9FFB8C1DAFF7D
:10109800010EDF6E010E1200000100018CC091F0FC
:1010A80000010001926B000120EE34F000018A512A
:1010B800D92600018B51DA22DF5000010001936F1D
:1010C8000001000193510D0DF350000100018A2524
:1010D80000010001946FF450000100018B21000110
:1010E800956F94C0D9FF95C0DAFFDF50D8B402D00D
:1010F800FF0E1200000120EE01F000019451D926E4
:1011080000019551DA2200018CC0DFFF000120EEBA
:1011180002F000019451D92600019551DA2200010C
:101128008DC0DFFF030E00010001942500010001BE
:10113800806F000E0001000195210001816F000100
:1011480000018FC083F0000100018EC082F091C0C1
:1011580084F092C085F0E6EC0CF0000120EE34F04B
:1011680000018A51D92600018B51DA22000110EEC4
:1011780034F000018A51E12600018B51E222E75048
:101188000001906F00019029030BDF6E94C0D9FF16
:1011980095C0DAFF010EDF6E010E1200E8CF84F071
:1011A80020EE19F06150D9266250DA22000EDF6E67
:1011B80035D020EE19F06150D9266250DA22DF507E
:1011C8000001826F00018251010DF35000010001FE
:1011D8008025D96EF450000100018121DA6E10EEED
:1011E80019F06150E1266250E222E7500001836F56
:1011F80000018351010D0F0EF326000EF422F35067
:101208006124E16EF4506220E26EDFCFE7FF20EE4A
:1012180019F06150D9266250DA22DF2A20EE19F03F
:101228006150D9266250DA22DF500001826F000136
:10123800000184510001825DD8A0BBD720EE19F0CF
:101248006150D9266250DA22000184C0DFFF20EE07
:101258001AF06150D9266250DA22010EDF6E20EEB4
:101268000FF06150D9266250DA22DF50C96EC68865
:101278001200CFEC0DF001010101A8510101A711E5
:10128800D8B412008A860101A96F010E000100017D
:10129800D36F0101A9510101010E01010101A46FE0
:1012A8000101370E01010101A36F8AEC0EF000095C
:1012B800D8B40AD00101A96F000E00010001D36F54
:1012C8000101A9518A9612000101010E01010101D3
:1012D800A46F01016D0E01010101A36F8AEC0EF0EC
:1012E8000009D8B40AD00101A96F000E000100015D
:1012F800D36F0101A9518A9612000A0E7DEC0FF0F6
:101308008AB602D0010E01D0000E0101A96F0101B9
:10131800A947A947A9478A500101A919F70BA91993
:101328008A6EB9D70DC012F0136A20EE34F00B5054
:10133800D9260C50DA22DF50146E14500D0DF350DC
:101348000B24156EF4500C20166E15C0D9FF16C06C
:10135800DAFFDF50D8B402D0FF0E120020EE01F001
:101368001550D9261650DA220DC0DFFF20EE02F004
:101378001550D9261650DA220EC0DFFF030E1524A9
:10138800016E000E1620026E10C004F00FC003F0AC
:1013980012C005F013C006F033EC0EF020EE34F066
:1013A8000B50D9260C50DA2210EE34F00B50E126FF
:1013B8000C50E222E750116E1128030BDF6E15C0A6
:1013C800D9FF16C0DAFF010EDF6E010E1200E8CF5A
:1013D80080F020EE0BF06150D9266250DA22010E1F
:1013E800DF6E20EE0AF06150D9266250DA22000E34
:1013F800DF6E000100018051D8B42ED0C7AA18D0E2
:1014080020EE0CF06150D9266250DA22050EDF6E0C
:1014180020EE0EF06150D9266250DA22DF2A20EE43
:101428000DF06150D9266250DA22050EDF6E1200E7
:10143800C7A409D020EE0CF06150D9266250DA22F8
:10144800080EDF6E120020EE0CF06150D9266250B3
:10145800DA22070EDF6E120020EE0CF06150D9265A
:101468006250DA22060EDF6E1200E8CFA6F1D1C074
:10147800D9FFD2C0DAFFDF50D8A412000101A56F4E
:10148800020E4A6E0101A551000120EE0BF0000189
:10149800D151D9260001D251DA220101A6C1DFFFBC
:1014A800000120EE0CF00001D151D9260001D251E3
:1014B800DA22000EDF6E000120EE0EF00001D1519D
:1014C800D9260001D251DA2201010101A4510101FA
:1014D800A425DF6E000120EE0DF00001D151D926C0
:1014E8000001D251DA220101A3C1DFFFC580D1C0BA
:1014F800D9FFD2C0DAFF010EDF6E1200E8CFA8F1E3
:10150800000EAC6E000EAB6E01010101A8B1AC88F3
:1015180001010101A8A302D0AC8CAB8C010101012F
:10152800A8B5AC8E01010101A8A702D0AB8801D0F3
:10153800AB8A01010101A8B9AC849E98010101019F
:10154800A8BBAB8601010101A8AD02D09D8A01D0DC
:101558009D9A9E9A01010101A8AF02D09D8801D0F1
:101568009D98A3C1AFFF0101A4C1A5F1A5C1A6F132
:101578000101A76B0101A651B06EAC8AAB8E949C99
:10158800948EACA81200ACBE1200948C120001011B
:101598000101A651A511D8B43AD00101A76F010ED7
:1015A80001010101A86F0101A75109D00101010141
:1015B8000101D890A537A63701010101A82B010127
:1015C8000101A6AFF3D701010101A55101010101F4
:1015D800A35D01010101A65101010101A459D8A08F
:1015E8000CD001010101A55101010101A35F010115
:1015F8000101A65101010101A45B010101010101E1
:10160800D890A633A53301010101A82FDCD7A3C1C7
:10161800A3F1A4C1A4F11200E8CFA7F1000EC26E95
:10162800000EC06E01010101D890A3313C0BC26EBF
:10163800A3C1A5F10101A53BF00EA517300E0101CC
:10164800A51701010101A4510F0B0101A511C16EDC
:10165800A7C1A5F10101D890A5370101D890A537F8
:10166800380E0101A517A7C1A6F10101A63B0F0E6F
:10167800A617070E0101A61701010101A751800B4A
:101688000101A6110101A511C06E01010101A3AF5D
:1016980003D09E9C9D8CF28CC2801200000120EE2B
:1016A8001AF00001F551D9260001F651DA22DF506F
:1016B800D8B41200000120EE1BF00001F551D92624
:1016C8000001F651DA22DF50026E0250010D100EB1
:1016D800F326000EF422F35000010001F525D96E1F
:1016E800F45000010001F621DA6EDF5088EC0FF0AB
:1016F8009D88000120EE1BF00001F551D92600015C
:10170800F651DA22DF2A000120EE1AF00001F55125
:10171800D9260001F651DA22DF06120002EE53F054
:10172800360EEE6AE806FDE101EE00F0A30EEE6A61
:10173800E806FDE100EEBAF0240EEE6AE806FDE1E7
:1017480000EE2DF0260EEE6AE806FDE1E20EF66EDA
:101758001E0EF76E000EF86E00EEDEF010EE17F0BB
:101768000900F5CFEEFFE550E150FAE1A00EF66E64
:101778001F0EF76E000EF86E00EE53F010EE0EF02E
:101788000900F5CFEEFFE550E150FAE1000EF86EE2
:101798000001F0EF02F0010120EE34F00101A35145
:1017A800D9260101A451DA22000EDF6E010120EED4
:1017B80035F00101A351D9260101A451DA22000E06
:1017C800DF6E0101A56F000E01010101A66F010185
:1017D800A551030E01010101A66501D01200010106
:1017E8000101A6510D0DF35001010101A325D96E88
:1017F800F45001010101A421DA6E000EDF6E01012F
:101808000101A62B030E01010101A665E8D712000C
:10181800BDC1D9FFBEC1DAFFDE2A000EDD22BDC17F
:10182800D9FFBEC1DAFF0101DECFA3F10101DDCF8F
:10183800A4F1000E01010101A66F0A0E0101A56FB6
:10184800CBEC0AF001010101A351090A0101A4111D
:10185800D8A412000101C56F140E01010101B96F6E
:101868000101C55101010101BEC1BBF10101010125
:10187800BDC1BAF1020E6FEC0EF001010101C66F95
:101888001200BDC1D9FFBEC1DAFFDE2A000EDD227B
:10189800BDC1D9FFBEC1DAFF0101DECFA3F101014D
:1018A800DDCFA4F1000E01010101A66F0A0E0101AE
:1018B800A56FCBEC0AF001010101A351090A01014E
:1018C800A411D8A412000101C56F140E0101010171
:1018D800B96F0101C55101010101BEC1BBF101018F
:1018E8000101BDC1BAF1020E6FEC0EF00101010158
:1018F800C66F12000101A76F000E00010001D36F2F
:101908000101A7510101010E01010101A46F0101AB
:101918006D0E01010101A36FCFEC0BF00101010E67
:1019280001010101A46F0101370E01010101A36F3B
:10193800CFEC0BF00101010E01010101A46F0101BF
:10194800010E01010101A36FCFEC0BF00201020EA1
:1019580001010101A46F0201530E01010101A36FEE
:10196800CFEC0BF0120001010101A6C1ACF101019D
:101978000101A5C1ABF101010101A4C1AAF1010155
:101988000101A3C1A9F112D0ABC1D9FFACC1DAFFE3
:10199800A9C1E1FFAAC1E2FFDFCFE7FF0101010111
:1019A800AB4BAC2B01010101A94BAA2B0101010191
:1019B800A707D8A0A8070101A729D8B4A829D8B48F
:1019C8001200E2D70001000183C089F00001000184
:1019D80082C088F00001000181C087F00001000189
:1019E80080C086F012D088C0D9FF89C0DAFF86C0CF
:1019F800E1FF87C0E2FFDFCFE7FF00010001884B6E
:101A0800892B00010001864B872B00010001840708
:101A1800D8A0850700018429D8B48529D8B4120034
:101A2800E2D701010001A4C1F6F001010001A3C140
:101A3800F5F0000120EE0AF00001F551D926000169
:101A4800F651DA22000EDF6E000120EE0FF00001E1
:101A5800F551D9260001F651DA22000EDF6E000199
:101A680020EE0BF00001F551D9260001F651DA22DB
:101A7800300EDF6E12000101A4C162F00101A3C1A2
:101A880061F020EE0AF06150D9266250DA22000E89
:101A9800DF6E20EE0BF06150D9266250DA22000E7C
:101AA800DF6E20EE0CF06150D9266250DA22050E66
:101AB800DF6E20EE0EF06150D9266250DA22000E59
:101AC800DF6E120001010101A5511E0AA611D8B44A
:101AD800120001010101A5511F0AA611D8A4120084
:101AE80001010101A75101010101A925D96E0101D7
:101AF8000101A85101010101AA21DA6E000EDF6E71
:101B080000010001CF4BD02B1200959E959C000E32
:101B180001010101AB6F000E0101AA6F0101A86F5D
:101B2800840E01010101A36F0101A8510101A96FF0
:101B3800FF0E01010101A46F0101A9518F0E10ECE4
:101B48000BF09E9CF28C9D8CF28EDDEC0FF0120057
:101B5800F2AC08D0000E01010101A66F000E0101D0
:101B6800A56F1200A4EC0FF001010101A4510101BD
:101B7800A311D8B408D0000E01010101A66F000E10
:101B88000101A56F1200000E01010101A66F010EEF
:101B98000101A56F1200ACEC0DF001010101A65185
:101BA8000101A511D8A411D0A4EC0FF00101010185
:101BB800A4510101A311D8A408D0000E010101010C
:101BC800A86F010E0101A76F1200000E01010101AB
:101BD800A86F000E0101A76F1200E8CFBFF1010145
:101BE800010E01010101AE6F01016D0E010101013C
:101BF800AD6FBFC1AFF101010101BCC1B1F101017C
:101C08000101BBC1B0F101010101BEC1B3F1010184
:101C18000101BDC1B2F1A1EC06F01200E8CFBFF19D
:101C28000101010E01010101AE6F0101370E010131
:101C38000101AD6FBFC1AFF101010101BCC1B1F13B
:101C480001010101BBC1B0F101010101BEC1B3F144
:101C580001010101BDC1B2F1A1EC06F0120004C0FE
:101C68000AF003C009F002C008F001C007F00ED066
:101C780009C0D9FF0AC0DAFF07C0E1FF08C0E2FFC8
:101C8800DFCFE7FF094A0A2A074A082A0506D8A02B
:101C980006060528D8B40628D8B41200E9D72D506E
:101CA80033240001826F0001820500010001D46F16
:101CB800000E2E6E010E2D6E000E346E000E336E69
:101CC8000001000E00010001816F0001D40E000127
:101CD8000001806F1200E8CFBCF10201020E010181
:101CE8000101AE6F0201530E01010101AD6FBCC1CC
:101CF800AFF1B9C1B0F101010101BBC1B2F10101FC
:101D08000101BAC1B1F1CEEC07F01200010120EED9
:101D180035F00101A351D9260101A451DA22DF507F
:101D28000101A56F0101A5510D0DF350010101013C
:101D3800A325D96EF45001010101A421DA6EDF5008
:101D48001200E8CFBCF10101010E01010101AE6FE3
:101D580001016D0E01010101AD6FBCC1AFF1B9C147
:101D6800B0F101010101BBC1B2F101010101BAC128
:101D7800B1F1CEEC07F012008ABC02D0010E01D0FE
:101D8800000E0001846F0001843B844784478A5019
:101D980000018419BF0B84198A6E000E000100012E
:101DA800816F000E0001806FBFEC0FF01200E8CFCA
:101DB80099F00101010E000100018B6F0101370E3E
:101DC800000100018A6F99C08CF096C08DF0000167
:101DD800000198C08FF00001000197C08EF050EC10
:101DE80008F012008ABE02D0010E01D0000E056E66
:101DF800053205328A5005187F0B05188A6EB6EC35
:101E08000FF001C006F002C007F0000E026E000ECF
:101E1800016EADEC0FF012009EAA04D062EC0FF038
:101E2800D0EC04F046A61200AB98AB881B6E1E0ED1
:101E3800176E1B50000E196E000E186E000E4FEC38
:101E48000FF01200E8CFA3F101010101A3517F0BAC
:101E5800D56E000ED76E000ED66EF2940101010108
:101E6800A3AF02D0F28A01D0F29AD58E1200E8CF41
:101E7800A3F194869488A3C1C8FF000EC76E000E14
:101E8800C66E000EC56E0E0EC612C78E9486948856
:101E9800C580C68A1200E8CF1AF00101010E0C6E47
:101EA80001016D0E0B6E1AC00DF017C00EF019C0AF
:101EB80010F018C00FF096EC09F01200F20E46165A
:101EC800ABAC03D04690ABB04680ABB44684ABB263
:101ED8004686AECF01F0015012004D4943524F43A0
:101EE8004849503A4932435F4D41535445520001E5
:101EF8008100E8CFA3F1FA0E00F0E82EFDD701012A
:101F08000101A32FF8D71200E8CF01F0ACAC03D041
:101F1800AC9046B2AC8001C0ADFF1200A3C1D9FF9E
:101F2800A4C1DAFF000EDE6E000EDD6E1200A3C142
:101F3800D9FFA4C1DAFF000EDE6E000EDD6E1200BE
:101F4800000EF2AE010E01010101A36F0101A46BA5
:101F5800120001C003F002C004F004C0CFFF03C0A8
:101F6800CEFF1200CECF03F0CFCF04F003C001F0B4
:101F780004C002F0120080C082F081C083F083C0E8
:101F8800D7FF82C0D6FF1200C45000010001816F44
:101F9800C3500001806F12002B014DCC23A332B136
:101FA800DB235CA3B42DD08EF28EF28CF28AF184FE
:0A1FB8001200C2821200C282120061
:067FF80080F4C5FFFFF15B
:00000001FF
