:0400000061EF00F0BC
:0C000800FACF7BF0FBCF7CF0CBEF09F0CF
:10001800D8CF1FF0E8CF20F0E0CF21F0FACF22F0C0
:10002800FBCF23F0E9CF24F0EACF25F0E1CF26F08B
:10003800E2CF27F0D9CF28F0DACF29F0F3CF2AF092
:10004800F4CF2BF0F6CF2CF0F7CF2DF0F8CF2EF021
:10005800F5CF2FF09EA003D09E90D5EC0DF09EAA70
:1000680003D09E9AEFEC0DF09DB89EA803D09D9802
:10007800DFEC0BF02FC0F5FF2EC0F8FF2DC0F7FF07
:100088002CC0F6FF2BC0F4FF2AC0F3FF29C0DAFF0B
:1000980028C0D9FF27C0E2FF26C0E1FF25C0EAFF3C
:1000A80024C0E9FF23C0FBFF22C0FAFF21C0E0FF04
:1000B80020C0E8FF1FC0D8FF10004DEF0AF0010173
:1000C8009B6F000E01010101AE6F01019B51E00E13
:1000D800D36E9B8C0101010E000100018A6F0101A2
:1000E800B90E00010001896F14EC0DF00101010E39
:1000F800000100018A6F0101D50E00010001896F1E
:10010800AAEC0BF00101010E000100018A6F010148
:10011800B30E00010001896F92EC0EF00101010E8F
:10012800000100018A6F0101B50E00010001896F0D
:100138009BEC0EF039EC0BF0000E936E000E8A6EFD
:100148009388938A9F98C8EC0EF09F909F9A9F86F9
:100158009F8C9D86000E000100018A6F9B0E000196
:10016800896F7C0E0DEC0AF040EC0EF09F0E05EC4A
:100178000EF08A8E3BEC08F00101010E010101012D
:10018800916F0101B70E01010101906F0101010E8C
:1001980001010101936F0101A30E01010101926F99
:1001A8000A0ED3EC0CF001010101B86F0101010145
:1001B800B8BF3DD129D10101010E01010101926FA2
:1001C8000101B50E01010101916F01010101B7C1E2
:1001D80093F101010101946B01010101B851010181
:1001E8000101956F0101966B010195BF9607010109
:1001F800010E01010101986F0101A30E0101010126
:10020800976F00EC0BF013D18ABC02D0010E01D01D
:10021800000E01019B6F01019B3B9B479B478A5046
:1002280001019B19BF0B9B198A6E01019B6F020E7E
:1002380001010101156F01019B5101010101A30594
:10024800D8A404D001019B6F010E09D0010101015E
:10025800A351050AD8A408D001019B6F000E010123
:100268000101AE6F01019B5101010101A351110A66
:10027800D8A414D001019B6F050E00010001896FFD
:1002880001019B5101019C6F4E0E000100018A6F14
:1002980001019C510A0E3BEC09F00DD0A3C189F075
:1002A80001019B6F4F0E000100018A6F01019B51F4
:1002B8000A0E3BEC09F0A4C1A0F1B9D0A3C19DF18D
:1002C800B6D0010101011505D8A486D001010101AC
:1002D800A3C1B1F101010101B26B01010101B251E8
:1002E800800A800F010ED8B4B15DD8A0A0D0000E4E
:1002F80001010101B06F000E0101AF6F1BD00101B8
:10030800A30E01010101AF25D96E0101010E010102
:100318000101B021DA6EDF5001019B6F01019B5191
:1003280001010101A127000E0101A2230101010120
:10033800AF4BB02B01010101B051800A01019B6F45
:100348000101B15101010101AF5D01010101B2518A
:10035800800A01019B59D8A0D2D7A1C189F0A2C1B6
:100368008AF0B1C18BF0B2C18CF083EC05F00001CA
:1003780089C0A1F100018AC0A2F11E0E010101018C
:10038800A45DD8B054D001010101AE05D8A44FD066
:1003980001019B6F020E01010101156F01019B51C3
:1003A80001019B6F000E01010101AE6F01019B511C
:1003B80001019B6F050E00010001896F01019B512E
:1003C80001019C6F4F0E000100018A6F01019C51D1
:1003D8000A0E3BEC09F02BD001019B6F2F0E010197
:1003E80001018D6F01019B510101010E0101010104
:1003F8008F6F0101A30E010101018E6F010101013F
:10040800B85184EC0DF013D001010101B7510A0A6B
:10041800D8B4D1D6220AD8B4F7D6010AD8B44ED760
:10042800030AD8B404D0070AD8B44BD71A0A010172
:10043800010E01010101916F0101B70E01010101D6
:10044800906F0101010E01010101936F0101A30EDB
:1004580001010101926F0A0EB2EC0CF001010101D9
:10046800B86F01010101B8BF85D66BD00101010E3B
:1004780001010101926F0101B30E01010101916FA8
:1004880001010101B7C193F101010101946B01015F
:100498000101B85101010101956F0101966B01013C
:1004A80095BF96070101010E01010101986F010135
:1004B800A30E01010101976FC7EC0AF05BD6010199
:1004C8000101B85101010101826F0101836B010132
:1004D80082BF83070101010E01010101856F01013E
:1004E800A30E01010101846FA0C186F1E9EC08F0B7
:1004F8000101010E01010101926F01019E0E01012E
:100508000101916F01010101B7C193F101010101DD
:10051800946B01010101B85101010101956F0101BD
:10052800966B010195BF96070101010E01010101BA
:10053800986F0101A30E01010101976F72EC0BF096
:1005480019D601010101B7510B0AD8B48FD7150A82
:10055800D8B4B5D7010AD8B4CBD7300AD8B4AFD7F6
:1005680009D685D1000120EE0EF00001C551D9262B
:100578000001C651DA22DF50C96EC5C0D9FFC6C016
:10058800DAFF030EDF6E1200C5BC12000001000185
:10059800C805D8A41ED0000120EE0CF00001C551FA
:1005A800D9260001C651DA22DF5000017A6F000116
:1005B8007A51010D010EF326000EF422F3500001CA
:1005C8000001C525D96EF45000010001C621DA6E7C
:1005D8000FD000010001C851020AD8A40BD00001B5
:1005E80020EE0DF00001C551D9260001C651DA22CE
:1005F800DF50C96EC5C0D9FFC6C0DAFF050EDF6E71
:100608001200C5BC120000010001C805D8A452D0D0
:10061800000120EE0CF00001C551D9260001C65199
:10062800DA22DF2A000120EE0CF00001C551D9269C
:100638000001C651DA22DF5000017A6F000120EE76
:100648000BF00001C551D9260001C651DA22DF504E
:1006580000017A5DD8B026D0000120EE0CF0000130
:10066800C551D9260001C651DA22DF5000017A6F40
:1006780000017A51010D010EF326000EF422F35009
:1006880000010001C525D96EF45000010001C62102
:10069800DA6EDF50C96EC5C0D9FFC6C0DAFF050ED5
:1006A800DF6E1200C584C5C0D9FFC6C0DAFF090EC7
:1006B800DF6E120000010001C851020AD8A412001E
:1006C800C582C5C0D9FFC6C0DAFF020EDF6E1200B0
:1006D800000120EE0EF00001C551D9260001C651D7
:1006E800DA22DF500109C96EC5C0D9FFC6C0DAFFDA
:1006F800040EDF6E1200C5BC1200C586C5C0D9FF46
:10070800C6C0DAFF060EDF6E1200000120EE0CF004
:100718000001C551D9260001C651DA22DF50000177
:100728007A6F00017A51010D010EF326000EF422B2
:10073800F35000010001C525D96EF45000010001F5
:10074800C621DA6EC9CFDFFF000120EE0CF00001F0
:10075800C551D9260001C651DA22DF2A000120EE50
:100768000CF00001C551D9260001C651DA22DF502C
:1007780000017A6F000120EE0BF00001C551D92667
:100788000001C651DA22DF5000017A5DD8B007D0E7
:10079800C59AC5C0D9FFC6C0DAFF070E06D0C58AFC
:1007A800C5C0D9FFC6C0DAFF080EDF6EC5881200C3
:1007B800C586C5C0D9FFC6C0DAFF060EDF6E1200B7
:1007C800C584C5C0D9FFC6C0DAFF090EDF6E1200A6
:1007D80000010001C805D8A414D000017A6F2B0EBF
:1007E80000010001766F00017A51000E000100013E
:1007F800786F000E00010001776F000EBAEC0DF063
:1008080027D000010001C851020AD8A421D0000154
:100818007A6F2D0E00010001766F00017A51010EEA
:1008280000010001C52500010001776F000E0001DD
:100838000001C6210001786F000120EE0CF00001D4
:10084800C551D9260001C651DA22DF50BAEC0DF0A5
:1008580000017A6F000E00010001C86F00017A5193
:10086800C5C0D9FFC6C0DAFF000EDF6E1200C5C0D2
:10087800D9FFC6C0DAFFDF50010AD8B473D6030A1D
:10088800D8B426D7010AD8B47FD6070AD8B433D744
:10089800010AD8B4B6D6030AD8B437D7010AD8B4EF
:1008A80087D70F0AD8B48CD7010AD8A4120090D7DA
:1008B800E8CF1DF007D11D502B0AD8A4120020EE56
:1008C8000BF05650D9265750DA22350EDF6E12003B
:1008D8001D509F0AD8A409D020EE0BF05650D926F7
:1008E8005750DA22310EDF6E120020EE0BF0565010
:1008F800D9265750DA22300EDF6E120020EE0AF0A9
:100908005650D9265750DA22000EDF6E20EE0FF02F
:100918005650D9265750DA22000EDF6E20EE0CF022
:100928005650D9265750DA221DC0DFFF56C0D9FFCE
:1009380057C0DAFF1DC0DFFF20EE0BF05650D92656
:100948005750DA22360EDF6E120020EE0EF05650A7
:10095800D9265750DA221DC0DFFF20EE01F056508D
:10096800D9265750DA221DC0DFFF20EE0BF0565073
:10097800D9265750DA22340EDF6E120020EE01F02D
:100988005650D9265750DA221DC0DFFF20EE0DF051
:100998005650D9265750DA221DC0DFFF20EE0AF044
:1009A8005650D9265750DA22000EDF6E20EE0FF08F
:1009B8005650D9265750DA22000EDF6E20EE0BF083
:1009C8005650D9265750DA22330EDF6E120020EE29
:1009D8000FF05650D9265750DA22DF501B6E1C6A8A
:1009E800020E1B26000E1C221C50800AF36E800E7D
:1009F800F35C0A0ED8B41B5CD8B015D020EE0FF00B
:100A08005650D9265750DA22DF501B6E1C6A020E48
:100A18001B26000E1C221B505624D96E1C50572032
:100A2800DA6E1DC0DFFF20EE0FF05650D926575062
:100A3800DA22DF2A20EE0FF05650D9265750DA2254
:100A4800090EDF62120020EE0BF05650D9265750DF
:100A5800DA22340EDF6E12001D505C0AD8A419D0B9
:100A680020EE0BF05650D9265750DA22300EDF6EA2
:100A78007DEC0EF00009D8A4FBD71B6E280E176E6C
:100A88001B5057C019F056C018F0020E2DEC0EF08E
:100A980008D020EE0BF05650D9265750DA22300EE7
:100AA800DF6E20EE0AF05650D9265750DA22000E93
:100AB800DF6E20EE0FF05650D9265750DA22000E7E
:100AC800DF6E120020EE0BF05650D9265750DA226E
:100AD800DF50300AD8B4EFD6010AD8B40FD7030ACA
:100AE800D8B44CD7010AD8B472D7070AD8B4B4D747
:100AF800010AD8B4EDD6030AD8A4120026D70001FB
:100B08008D6F000E000100018F6F00018D510001F3
:100B180000018C51800AF36E800EF35C000ED8B48D
:100B28008B5DD8B00FD0000100018B6D00018C1FC8
:100B3800D8B08C2B00018D6F010E000100018F6F62
:100B480000018D51000100018A51800AF36E800E68
:100B5800F35C000ED8B4895DD8B00BD00001000159
:100B6800896D00018A1FD8B08A2B010E000100018F
:100B78008F1B000E00010001916F000E0001906FA5
:100B8800000100018C518B11D8B443D000018D6F46
:100B9800010E000100018E6F00018D5109D0000186
:100BA80000010001D8908B378C37000100018E2B93
:100BB800000100018CAFF3D7000100010001D890BB
:100BC80090379137000100018B5100010001895DC8
:100BD800000100018C51000100018A59D8A00FD0F2
:100BE800000100018B5100010001895F0001000133
:100BF8008C51000100018A5B000100019081000115
:100C080000010001D8908C338B33000100018E2F36
:100C1800D3D7000100018F51D8B407D000010001DB
:100C2800906D0001911FD8B0912B90C089F091C0B0
:100C38008AF01200010120EE35F001018251D92617
:100C480001018351DA22DF50010101018B6F01019B
:100C580001018B510D0DF3500101010182250101A4
:100C680001018E6FF45001010101832101018F6F91
:100C7800010E8EC1D9FF8FC1DAFFDF6274D0010186
:100C880020EE01F001018E51D92601018F51DA229F
:100C9800DF5001010101845DD8B002D0FD0E1200C1
:100CA800010120EE01F001018E51D92601018F5179
:100CB800DA22DF500101896F010189510101010127
:100CC8008C6F01018D6B0101000188C18AF001015F
:100CD800000187C189F0030E010101018E25010180
:100CE800896F000E010101018F2101018A6F89C1FD
:100CF8008BF08AC18CF08CC18DF08DC18EF00FEC19
:100D08000CF0010120EE35F001018251D9260101D4
:100D18008351DA22010110EE35F001018251E126FA
:100D280001018351E222E7500101896F01018929FC
:100D3800030BDF6E010120EE02F001018E51D9266E
:100D480001018F51DA2285C1E1FF86C1E2FFDFCFC1
:100D5800E7FF8EC1D9FF8FC1DAFF000EDF6E0101F8
:100D680001018C511200FC0E12000101010184C125
:100D780088F101010101896B010120EE34F00101C4
:100D88008251D92601018351DA22DF500101010184
:100D98008A6F010101018A510D0DF3500101010112
:100DA8008225010101018B6FF450010101018321AA
:100DB80001018C6F8BC1D9FF8CC1DAFFDF50D8B429
:100DC80002D0FF0E1200010120EE01F001018B514B
:100DD800D92601018C51DA22010184C1DFFF01010A
:100DE80020EE02F001018B51D92601018C51DA2243
:100DF800010185C1DFFF030E010101018B250001FF
:100E08000001896F000E010101018C2100018A6F28
:100E18000101000187C18CF00101000186C18BF03E
:100E280088C18DF089C18EF00FEC0CF0010120EE25
:100E380034F001018251D92601018351DA220101DE
:100E480010EE34F001018251E12601018351E222C2
:100E5800E7500001936F00019329030BDF6E8BC1EC
:100E6800D9FF8CC1DAFF010EDF6E010E12000001FE
:100E780000016CC071F000010001726B000120EEEE
:100E880034F000016A51D92600016B51DA22DF5093
:100E980000010001736F0001000173510D0DF35043
:100EA800000100016A2500010001746FF45000017F
:100EB80000016B210001756F74C0D9FF75C0DAFF9E
:100EC800DF50D8B402D0FF0E1200000120EE01F06E
:100ED80000017451D92600017551DA2200016CC055
:100EE800DFFF000120EE02F000017451D926000155
:100EF8007551DA2200016DC0DFFF030E0001000109
:100F0800742500010001606F000E000100017521C9
:100F18000001616F000100016FC063F00001000172
:100F28006EC062F071C064F072C065F03EEC0CF007
:100F3800000120EE34F000016A51D92600016B51FE
:100F4800DA22000110EE34F000016A51E1260001B6
:100F58006B51E222E7500001706F00017029030B0A
:100F6800DF6E74C0D9FF75C0DAFF010EDF6E010EA7
:100F7800120020EE10F05650D9265750DA222B0EC8
:100F8800DF6E20EE11F05650D9265750DA229F0E08
:100F9800DF6E000E00010001906F000E00018F6FE0
:100FA80028D0000100018F51000100018925D96E68
:100FB800000100019051000100018A21DA6E120E31
:100FC800000100018F2500018D6F000E0001000156
:100FD800902100018E6F00018D515624E16E0001B1
:100FE8008E515720E26EDFCFE7FF000100018F4BE3
:100FF800902B000100019051800A00018D6F0001C3
:101008008B51000100018F5D000100018C51800AA5
:1010180000018D59D8A0C5D7120E000100018F25F7
:1010280000018D6F000E00010001902100018E6FFC
:1010380000018D515624D96E00018E515720DA6E69
:101048005C0EDF6E20EE1AF05650D9265750DA2281
:10105800000100018B51030FDF6E20EE1BF056508C
:10106800D9265750DA22000EDF6E9D88120090ECC8
:101078000CF0000100018E5100018D11D8B412004E
:101088008A8600018F6F010E00010001C76F000101
:101098008F510101010E000100018A6F0101160E36
:1010A80000010001896F69EC0DF00009D8B40AD07D
:1010B80000018F6F000E00010001C76F00018F5102
:1010C8008A9612000101010E000100018A6F0101D8
:1010D8004C0E00010001896F69EC0DF00009D8B4CD
:1010E8000AD000018F6F000E00010001C76F0001D8
:1010F8008F518A9612000A0E72EC0EF08AB602D050
:10110800010E01D0000E00018F6F00018F478F473D
:101118008F478A5000018F19F70B8F198A6EB9D73C
:101128000DC012F0136A20EE34F00B50D9260C5083
:10113800DA22DF50146E14500D0DF3500B24156E87
:10114800F4500C20166E15C0D9FF16C0DAFFDF5018
:10115800D8B402D0FF0E120020EE01F01550D926A7
:101168001650DA220DC0DFFF20EE02F01550D92606
:101178001650DA220EC0DFFF030E1524016E000E92
:101188001620026E10C004F00FC003F012C005F064
:1011980013C006F0F4EC0CF020EE34F00B50D92616
:1011A8000C50DA2210EE34F00B50E1260C50E222FB
:1011B800E750116E1128030BDF6E15C0D9FF16C05A
:1011C800DAFF010EDF6E010E120086C187F1000EF4
:1011D80001010101936F000E0101926F01010101EC
:1011E8009351800A800F0A0ED8B4925DD8B02BD0E4
:1011F800010101019251010101018425D96E01010A
:1012080001019351010101018521DA6E010E0101ED
:10121800010192250001916F000E01010101932146
:101228000001926F0101870E00019125E16E010115
:10123800010E00019221E26EDFCFE7FF01010101FB
:10124800924B932BCBD70101010E000100018A6F4D
:101258000101870E00010001896F000E00010001E5
:101268008C6F0B0E00018B6FBDEC07F01200E8CFFE
:101278008CF0C5C0D9FFC6C0DAFFDF50D8A4120071
:1012880000018B6F020E00010001C86F00018B5135
:10129800000120EE0BF00001C551D9260001C6510E
:1012A800DA2200018CC0DFFF000120EE0CF0000103
:1012B800C551D9260001C651DA22000EDF6E0001A1
:1012C80020EE0EF00001C551D9260001C651DA22E0
:1012D800000100018A5100018A25DF6E000120EE1D
:1012E8000DF00001C551D9260001C651DA220001CE
:1012F80089C0DFFFC580C5C0D9FFC6C0DAFF010EAF
:10130800DF6E1200000100018C518B11D8B43AD065
:1013180000018D6F010E000100018E6F00018D51DB
:1013280009D0000100010001D8908B378C370001EB
:1013380000018E2B000100018CAFF3D700010001E2
:101348008B5100010001895D000100018C510001F1
:1013580000018A59D8A00CD0000100018B5100016E
:101368000001895F000100018C51000100018A5BC6
:10137800000100010001D8908C338B33000100017B
:101388008E2FDCD789C089F08AC08AF01200E9CF95
:101398007DF0EACF7EF0E1CF7FF0E2CF80F0D9CFC9
:1013A80081F0DACF82F0F3CF83F0F4CF84F0F6CF78
:1013B80085F0F7CF86F0F8CF87F0F5CF88F09EA6B6
:1013C80003D09E96B5EC02F09EB29E92F2A403D092
:1013D800F2949FEC0DF09E5088C0F5FF87C0F8FF8F
:1013E80086C0F7FF85C0F6FF84C0F4FF83C0F3FF13
:1013F80082C0DAFF81C0D9FF80C0E2FF7FC0E1FF71
:101408007EC0EAFF7DC0E9FF7CC0FBFF7BC0FAFF1E
:101418001100E8CF8EF0000EAD6E000EAC6E00012C
:1014280000018EB1AD88000100018EA302D0AD8C01
:10143800AC8C000100018EB5AD8E000100018EA7B5
:1014480002D0AC8801D0AC8A000100018EB9AD840D
:10145800000100018EBBAC86000100018EAD02D0F8
:101468009D8A01D09D9A000100018EAF02D09D880F
:1014780001D09D9889C0B0FF00018AC08BF08BC055
:101488008CF000018D6B00018C517F6EAD8AAC8EA3
:10149800120002EE00F06C0EEE6AE806FDE101EEC5
:1014A80000F0820EEE6AE806FDE100EEB5F0200ECF
:1014B800EE6AE806FDE100EE30F0200EEE6AE8067E
:1014C800FDE1A40EF66E1C0EF76E000EF86E00EE2F
:1014D80094F010EE21F00900F5CFEEFFE550E15051
:1014E800FAE19C0EF66E1D0EF76E000EF86E00EE19
:1014F80050F010EE06F00900F5CFEEFFE550E15090
:10150800FAE1000EF86E000163EF00F0000120EE32
:1015180034F000018951D92600018A51DA22000EDF
:10152800DF6E000120EE35F000018951D926000157
:101538008A51DA22000EDF6E00018B6F000E000167
:1015480000018C6F00018B51030E000100018C65B6
:1015580001D01200000100018C510D0DF350000163
:1015680000018925D96EF450000100018A21DA6E44
:10157800000EDF6E000100018C2B030E000100013C
:101588008C65E8D7120091C1D9FF92C1DAFFDE2A33
:10159800000EDD2291C1D9FF92C1DAFF0001DECF32
:1015A80089F00001DDCF8AF0000E000100018C6F88
:1015B8000A0E00018B6F86EC09F0000100018951C9
:1015C800090A00018A11D8A412000101996F140EAA
:1015D800010101018D6F010199510101010192C1C0
:1015E8008FF10101010191C18EF1020E4EEC0DF057
:1015F800010101019A6F120091C1D9FF92C1DAFF6E
:10160800DE2A000EDD2291C1D9FF92C1DAFF000166
:10161800DECF89F00001DDCF8AF0000E0001000165
:101628008C6F0A0E00018B6F86EC09F00001000137
:101638008951090A00018A11D8A412000101996F81
:10164800140E010101018D6F010199510101010180
:1016580092C18FF10101010191C18EF1020E4EEC90
:101668000DF0010101019A6F120000018D6F000E4B
:1016780000010001C76F00018D510101010E000139
:1016880000018A6F01014C0E00010001896F8AEC8C
:101698000AF00101010E000100018A6F0101160E16
:1016A80000010001896F8AEC0AF00201020E0001B4
:1016B80000018A6F0201360E00010001896F8AEC71
:1016C8000AF00201020E000100018A6F0201000EF9
:1016D80000010001896F8AEC0AF012000101010182
:1016E80093511E0A9411D8B41200010101019351BB
:1016F8001F0A9411D8A4120001010101955101019A
:1017080001019725D96E01010101965101010101DD
:101718009821DA6E000EDF6E0101996F280E010123
:1017280001018D6F010199510101010198C18FF1EA
:101738000101010197C18EF101010101955133ECBD
:101748000DF000010001BF4BC02B12000001000189
:101758008AC0D6F00001000189C0D5F0000120EE52
:101768000AF00001D551D9260001D651DA22000E1F
:10177800DF6E000120EE0BF00001D551D9260001E3
:10178800D651DA22000EDF6E000120EE0CF00001C7
:10179800D551D9260001D651DA22050EDF6E000197
:1017A80020EE0EF00001D551D9260001D651DA22DB
:1017B800000EDF6E120020EE1AF05650D926575050
:1017C800DA22DF50D8B4120020EE1BF05650D9268A
:1017D8005750DA22DF50026E0250010D100EF32628
:1017E800000EF422F3505624D96EF4505720DA6EC6
:1017F800DF5088EC0EF09D8820EE1BF05650D9265D
:101808005750DA22DF2A20EE1AF05650D9265750C0
:10181800DA22DF061200000100018CC092F00001FC
:1018280000018BC091F0000100018AC090F0000116
:10183800000189C08FF012D091C0D9FF92C0DAFFA1
:101848008FC0E1FF90C0E2FFDFCFE7FF000100019A
:10185800914B922B000100018F4B902B000100014E
:101868008D07D8A08E0700018D29D8B48E29D8B449
:101878001200E2D70001000163C069F00001000115
:1018880062C068F00001000161C067F0000100015A
:1018980060C066F012D068C0D9FF69C0DAFF66C0C0
:1018A800E1FF67C0E2FFDFCFE7FF00010001684BFF
:1018B800692B00010001664B672B000100016407DA
:1018C800D8A0650700016429D8B46529D8B41200E6
:1018D800E2D7F2AC08D0000E000100018C6F000EB8
:1018E80000018B6F1200A4EC0EF0000100018A5178
:1018F80000018911D8B408D0000E000100018C6FD6
:10190800000E00018B6F1200000E000100018C6FA9
:10191800010E00018B6F12006DEC0CF0000100014C
:101928008C5100018B11D8A411D0A4EC0EF0000149
:1019380000018A5100018911D8A408D0000E0001C5
:1019480000018E6F010E00018D6F1200000E000164
:1019580000018E6F000E00018D6F1200E8CF93F02A
:101968000101010E01010101836F01014C0E01010A
:101978000101826F93C084F10101010191C186F1D7
:101988000101010190C185F10101010193C188F1B3
:101998000101010192C187F11EEC06F01200E8CFA7
:1019A80093F00101010E01010101836F0101160E7F
:1019B80001010101826F93C084F10101010191C10C
:1019C80086F10101010190C185F10101010193C175
:1019D80088F10101010192C187F11EEC06F01200A5
:1019E80004C00AF003C009F002C008F001C007F003
:1019F8000ED009C0D9FF0AC0DAFF07C0E1FF08C04E
:101A0800E2FFDFCFE7FF094A0A2A074A082A050644
:101A1800D8A006060528D8B40628D8B41200E9D7F5
:101A280000018AC057F0000189C056F020EE0AF084
:101A38005650D9265750DA22000EDF6E20EE0FF0EE
:101A48005650D9265750DA22000EDF6E20EE0BF0E2
:101A58005650D9265750DA22300EDF6E1200E8CFE2
:101A680090F10101010E01010101836F0101160EC0
:101A780001010101826F90C184F18DC185F10101DD
:101A880001018FC187F1010101018EC186F1B9EC15
:101A980006F01200E8CF90F10201020E01010101E7
:101AA800836F0201000E01010101826F90C184F170
:101AB8008DC185F1010101018FC187F1010101018A
:101AC8008EC186F1B9EC06F01200000120EE35F067
:101AD80000018951D92600018A51DA22DF5000011C
:101AE8008B6F00018B510D0DF3500001000189250A
:101AF800D96EF450000100018A21DA6EDF5012001D
:101B0800E8CF90F10101010E01010101836F01018C
:101B18004C0E01010101826F90C184F18DC185F1E4
:101B2800010101018FC187F1010101018EC186F117
:101B3800B9EC06F012008ABC02D0010E01D0000EEA
:101B48000001646F0001643B644764478A500001E8
:101B58006419BF0B64198A6E000E00010001616FE1
:101B6800000E0001606FBFEC0EF01200E8CF79F0B4
:101B78000101010E000100016B6F0101160E000149
:101B880000016A6F79C06CF076C06DF00001000149
:101B980078C06FF00001000177C06EF03BEC07F0F1
:101BA80012008ABE02D0010E01D0000E056E053269
:101BB80005328A5005187F0B05188A6EB6EC0EF0B0
:101BC80001C006F002C007F0000E026E000E016EA2
:101BD800ADEC0EF012009EAA04D063EC0EF05CECA3
:101BE80004F03CA61200AC98AC881E6E1E0E176E50
:101BF8001E50000E196E000E186E000E1AEC0EF034
:101C08001200E8CF89F00001000189517F0BD56EE1
:101C1800000ED76E000ED66EF2940001000189AF57
:101C280002D0F28A01D0F29AD58E1200E8CF1AF0CB
:101C38000101010E0C6E01014C0E0B6E1AC00DF065
:101C480017C00EF019C010F018C00FF094EC08F08F
:101C58001200E8CF1AF00101010E0C6E0101160EF8
:101C68000B6E1AC00DF017C00EF019C010F018C096
:101C78000FF094EC08F012008188818AC78EC79C07
:101C8800770EC86E080EC66E000EC56EC68AC5C031
:101C9800D9FFC6C0DAFF000EDF6E12004D4943526D
:101CA8004F434849503A4932435F4D415354455296
:101CB800004DCC23A332B1DB235CA3B42D00F20E7C
:101CC8003C16ACAC03D03C90ACB03C80ACB43C848B
:101CD800ACB23C86AFCF01F001501200E8CF89F0DA
:101CE800FA0E00F0E82EFDD700010001892FF8D781
:101CF8001200C5C0D9FFC6C0DAFFDF50D8A402D091
:101D0800000E1200010E1200E8CF01F0ADAC03D0B6
:101D1800AD903CB2AD8001C0AEFF120089C0D9FFC2
:101D28008AC0DAFF000EDE6E000EDD6E120089C07A
:101D3800D9FF8AC0DAFF000EDE6E000EDD6E1200DB
:101D4800000EF2AE010E00010001896F00018A6BDE
:101D5800120001C003F002C004F004C0CFFF03C0AA
:101D6800CEFF1200CECF03F0CFCF04F003C001F0B6
:101D780004C002F0120060C062F061C063F063C08A
:101D8800D7FF62C0D6FF1200D08EF28EF28CF28A94
:0A1D9800F1841200018101001E0019
:08FFF8008AF795FFF2F9FFF111
:00000001FF
